{
  "_format": "hh-sol-artifact-1",
  "contractName": "NexaCourseFactory",
  "sourceName": "src/NexaCourseFactory.sol",
  "abi": [
    {
      "inputs": [
        {
          "internalType": "address",
          "name": "_initialOwner",
          "type": "address"
        },
        {
          "internalType": "address",
          "name": "_implementation",
          "type": "address"
        },
        {
          "internalType": "address",
          "name": "_treasury",
          "type": "address"
        },
        {
          "internalType": "uint256",
          "name": "_fee",
          "type": "uint256"
        }
      ],
      "stateMutability": "nonpayable",
      "type": "constructor"
    },
    {
      "inputs": [],
      "name": "FailedDeployment",
      "type": "error"
    },
    {
      "inputs": [
        {
          "internalType": "uint256",
          "name": "balance",
          "type": "uint256"
        },
        {
          "internalType": "uint256",
          "name": "needed",
          "type": "uint256"
        }
      ],
      "name": "InsufficientBalance",
      "type": "error"
    },
    {
      "inputs": [
        {
          "internalType": "address",
          "name": "owner",
          "type": "address"
        }
      ],
      "name": "OwnableInvalidOwner",
      "type": "error"
    },
    {
      "inputs": [
        {
          "internalType": "address",
          "name": "account",
          "type": "address"
        }
      ],
      "name": "OwnableUnauthorizedAccount",
      "type": "error"
    },
    {
      "anonymous": false,
      "inputs": [
        {
          "indexed": true,
          "internalType": "address",
          "name": "courseContract",
          "type": "address"
        },
        {
          "indexed": true,
          "internalType": "address",
          "name": "creator",
          "type": "address"
        },
        {
          "indexed": false,
          "internalType": "string",
          "name": "name",
          "type": "string"
        },
        {
          "indexed": false,
          "internalType": "string",
          "name": "symbol",
          "type": "string"
        }
      ],
      "name": "CourseCreated",
      "type": "event"
    },
    {
      "anonymous": false,
      "inputs": [
        {
          "indexed": false,
          "internalType": "uint256",
          "name": "newFee",
          "type": "uint256"
        }
      ],
      "name": "FeeUpdated",
      "type": "event"
    },
    {
      "anonymous": false,
      "inputs": [
        {
          "indexed": true,
          "internalType": "address",
          "name": "newImplementation",
          "type": "address"
        }
      ],
      "name": "ImplementationUpdated",
      "type": "event"
    },
    {
      "anonymous": false,
      "inputs": [
        {
          "indexed": true,
          "internalType": "address",
          "name": "previousOwner",
          "type": "address"
        },
        {
          "indexed": true,
          "internalType": "address",
          "name": "newOwner",
          "type": "address"
        }
      ],
      "name": "OwnershipTransferred",
      "type": "event"
    },
    {
      "anonymous": false,
      "inputs": [
        {
          "indexed": true,
          "internalType": "address",
          "name": "newTreasury",
          "type": "address"
        }
      ],
      "name": "TreasuryUpdated",
      "type": "event"
    },
    {
      "inputs": [
        {
          "internalType": "string",
          "name": "name",
          "type": "string"
        },
        {
          "internalType": "string",
          "name": "symbol",
          "type": "string"
        },
        {
          "internalType": "uint256",
          "name": "price",
          "type": "uint256"
        },
        {
          "internalType": "address",
          "name": "paymentToken",
          "type": "address"
        },
        {
          "internalType": "string",
          "name": "baseURI",
          "type": "string"
        }
      ],
      "name": "createCourse",
      "outputs": [
        {
          "internalType": "address",
          "name": "",
          "type": "address"
        }
      ],
      "stateMutability": "nonpayable",
      "type": "function"
    },
    {
      "inputs": [],
      "name": "implementation",
      "outputs": [
        {
          "internalType": "address",
          "name": "",
          "type": "address"
        }
      ],
      "stateMutability": "view",
      "type": "function"
    },
    {
      "inputs": [],
      "name": "owner",
      "outputs": [
        {
          "internalType": "address",
          "name": "",
          "type": "address"
        }
      ],
      "stateMutability": "view",
      "type": "function"
    },
    {
      "inputs": [],
      "name": "renounceOwnership",
      "outputs": [],
      "stateMutability": "nonpayable",
      "type": "function"
    },
    {
      "inputs": [
        {
          "internalType": "address",
          "name": "_newTreasury",
          "type": "address"
        }
      ],
      "name": "setTreasury",
      "outputs": [],
      "stateMutability": "nonpayable",
      "type": "function"
    },
    {
      "inputs": [
        {
          "internalType": "uint256",
          "name": "_newFee",
          "type": "uint256"
        }
      ],
      "name": "setTreasuryFee",
      "outputs": [],
      "stateMutability": "nonpayable",
      "type": "function"
    },
    {
      "inputs": [
        {
          "internalType": "address",
          "name": "newOwner",
          "type": "address"
        }
      ],
      "name": "transferOwnership",
      "outputs": [],
      "stateMutability": "nonpayable",
      "type": "function"
    },
    {
      "inputs": [],
      "name": "treasury",
      "outputs": [
        {
          "internalType": "address",
          "name": "",
          "type": "address"
        }
      ],
      "stateMutability": "view",
      "type": "function"
    },
    {
      "inputs": [],
      "name": "treasuryFee",
      "outputs": [
        {
          "internalType": "uint256",
          "name": "",
          "type": "uint256"
        }
      ],
      "stateMutability": "view",
      "type": "function"
    },
    {
      "inputs": [
        {
          "internalType": "address",
          "name": "_newImplementation",
          "type": "address"
        }
      ],
      "name": "updateImplementation",
      "outputs": [],
      "stateMutability": "nonpayable",
      "type": "function"
    }
  ],
  "bytecode": "0x608060405234801561001057600080fd5b50604051610a40380380610a4083398101604081905261002f916101ba565b836001600160a01b03811661005f57604051631e4fbdf760e01b8152600060048201526024015b60405180910390fd5b6100688161014e565b506001600160a01b0383166100bf5760405162461bcd60e51b815260206004820152601f60248201527f466163746f72793a20496e76616c696420696d706c656d656e746174696f6e006044820152606401610056565b6001600160a01b0382166101155760405162461bcd60e51b815260206004820152601960248201527f466163746f72793a20496e76616c6964207472656173757279000000000000006044820152606401610056565b600180546001600160a01b039485166001600160a01b031991821617909155600280549390941692169190911790915560035550610205565b600080546001600160a01b038381166001600160a01b0319831681178455604051919092169283917f8be0079c531659141344cd1fd0a4f28419497f9722a3daafe3b4186f6b6457e09190a35050565b80516001600160a01b03811681146101b557600080fd5b919050565b600080600080608085870312156101d057600080fd5b6101d98561019e565b93506101e76020860161019e565b92506101f56040860161019e565b6060959095015193969295505050565b61082c806102146000396000f3fe608060405234801561001057600080fd5b506004361061009e5760003560e01c80638da5cb5b116100665780638da5cb5b14610116578063cc32d17614610127578063e54e395d1461013e578063f0f4426014610151578063f2fde38b1461016457600080fd5b8063025b22bc146100a35780635c60da1b146100b857806361d027b3146100e8578063715018a6146100fb57806377e741c714610103575b600080fd5b6100b66100b1366004610589565b610177565b005b6001546100cb906001600160a01b031681565b6040516001600160a01b0390911681526020015b60405180910390f35b6002546100cb906001600160a01b031681565b6100b6610224565b6100b66101113660046105ab565b610238565b6000546001600160a01b03166100cb565b61013060035481565b6040519081526020016100df565b6100cb61014c366004610667565b61027b565b6100b661015f366004610589565b610361565b6100b6610172366004610589565b610409565b61017f610447565b6001600160a01b0381166101da5760405162461bcd60e51b815260206004820152601f60248201527f466163746f72793a20496e76616c696420696d706c656d656e746174696f6e0060448201526064015b60405180910390fd5b600180546001600160a01b0319166001600160a01b0383169081179091556040517f310ba5f1d2ed074b51e2eccd052a47ae9ab7c6b800d1fca3db3999d6a592ca0390600090a250565b61022c610447565b6102366000610474565b565b610240610447565b60038190556040518181527f8c4d35e54a3f2ef1134138fd8ea3daee6a3c89e10d2665996babdf70261e2c769060200160405180910390a150565b6001546000908190610295906001600160a01b03166104c4565b600254600354604051630dcbd10760e31b81529293506001600160a01b0380851693636e5e8838936102d8938d938d938d9333939216918d918d90600401610750565b600060405180830381600087803b1580156102f257600080fd5b505af1158015610306573d6000803e3d6000fd5b50505050336001600160a01b0316816001600160a01b03167f8afde4056726c8197dca53dca1581e04e4b8043f2ba6fcf41d2b3a09a58b5f51898960405161034f9291906107c8565b60405180910390a39695505050505050565b610369610447565b6001600160a01b0381166103bf5760405162461bcd60e51b815260206004820152601960248201527f466163746f72793a20496e76616c69642074726561737572790000000000000060448201526064016101d1565b600280546001600160a01b0319166001600160a01b0383169081179091556040517f7dae230f18360d76a040c81f050aa14eb9d6dc7901b20fc5d855e2a20fe814d190600090a250565b610411610447565b6001600160a01b03811661043b57604051631e4fbdf760e01b8152600060048201526024016101d1565b61044481610474565b50565b6000546001600160a01b031633146102365760405163118cdaa760e01b81523360048201526024016101d1565b600080546001600160a01b038381166001600160a01b0319831681178455604051919092169283917f8be0079c531659141344cd1fd0a4f28419497f9722a3daafe3b4186f6b6457e09190a35050565b60006104d18260006104d7565b92915050565b6000814710156105035760405163cf47918160e01b8152476004820152602481018390526044016101d1565b763d602d80600a3d3981f3363d3d373d3d3d363d730000008360601b60e81c176000526e5af43d82803e903d91602b57fd5bf38360781b176020526037600983f090506001600160a01b0381166104d15760405163b06ebf3d60e01b815260040160405180910390fd5b80356001600160a01b038116811461058457600080fd5b919050565b60006020828403121561059b57600080fd5b6105a48261056d565b9392505050565b6000602082840312156105bd57600080fd5b5035919050565b634e487b7160e01b600052604160045260246000fd5b600082601f8301126105eb57600080fd5b813567ffffffffffffffff80821115610606576106066105c4565b604051601f8301601f19908116603f0116810190828211818310171561062e5761062e6105c4565b8160405283815286602085880101111561064757600080fd5b836020870160208301376000602085830101528094505050505092915050565b600080600080600060a0868803121561067f57600080fd5b853567ffffffffffffffff8082111561069757600080fd5b6106a389838a016105da565b965060208801359150808211156106b957600080fd5b6106c589838a016105da565b9550604088013594506106da6060890161056d565b935060808801359150808211156106f057600080fd5b506106fd888289016105da565b9150509295509295909350565b6000815180845260005b8181101561073057602081850181015186830182015201610714565b506000602082860101526020601f19601f83011685010191505092915050565b60006101008083526107648184018c61070a565b90508281036020840152610778818b61070a565b604084018a90526001600160a01b0389811660608601528881166080860152871660a085015260c0840186905283810360e085015290506107b9818561070a565b9b9a5050505050505050505050565b6040815260006107db604083018561070a565b82810360208401526107ed818561070a565b9594505050505056fea2646970667358221220ed93bf560b24da14ccd894fda6636691560aae84c989fe25c981a7b2c5f8322264736f6c63430008140033",
  "linkReferences": {},
  "deployedLinkReferences": {}
}