{
  "_format": "hh-sol-artifact-1",
  "contractName": "VerifiedEntitySBT",
  "sourceName": "src/VerifiedEntitySBT.sol",
  "abi": [
    {
      "inputs": [
        {
          "internalType": "address",
          "name": "registry_",
          "type": "address"
        },
        {
          "internalType": "string",
          "name": "name_",
          "type": "string"
        },
        {
          "internalType": "string",
          "name": "symbol_",
          "type": "string"
        },
        {
          "internalType": "address",
          "name": "initialOwner",
          "type": "address"
        }
      ],
      "stateMutability": "nonpayable",
      "type": "constructor"
    },
    {
      "inputs": [
        {
          "internalType": "address",
          "name": "sender",
          "type": "address"
        },
        {
          "internalType": "uint256",
          "name": "tokenId",
          "type": "uint256"
        },
        {
          "internalType": "address",
          "name": "owner",
          "type": "address"
        }
      ],
      "name": "ERC721IncorrectOwner",
      "type": "error"
    },
    {
      "inputs": [
        {
          "internalType": "address",
          "name": "operator",
          "type": "address"
        },
        {
          "internalType": "uint256",
          "name": "tokenId",
          "type": "uint256"
        }
      ],
      "name": "ERC721InsufficientApproval",
      "type": "error"
    },
    {
      "inputs": [
        {
          "internalType": "address",
          "name": "approver",
          "type": "address"
        }
      ],
      "name": "ERC721InvalidApprover",
      "type": "error"
    },
    {
      "inputs": [
        {
          "internalType": "address",
          "name": "operator",
          "type": "address"
        }
      ],
      "name": "ERC721InvalidOperator",
      "type": "error"
    },
    {
      "inputs": [
        {
          "internalType": "address",
          "name": "owner",
          "type": "address"
        }
      ],
      "name": "ERC721InvalidOwner",
      "type": "error"
    },
    {
      "inputs": [
        {
          "internalType": "address",
          "name": "receiver",
          "type": "address"
        }
      ],
      "name": "ERC721InvalidReceiver",
      "type": "error"
    },
    {
      "inputs": [
        {
          "internalType": "address",
          "name": "sender",
          "type": "address"
        }
      ],
      "name": "ERC721InvalidSender",
      "type": "error"
    },
    {
      "inputs": [
        {
          "internalType": "uint256",
          "name": "tokenId",
          "type": "uint256"
        }
      ],
      "name": "ERC721NonexistentToken",
      "type": "error"
    },
    {
      "inputs": [
        {
          "internalType": "address",
          "name": "owner",
          "type": "address"
        }
      ],
      "name": "OwnableInvalidOwner",
      "type": "error"
    },
    {
      "inputs": [
        {
          "internalType": "address",
          "name": "account",
          "type": "address"
        }
      ],
      "name": "OwnableUnauthorizedAccount",
      "type": "error"
    },
    {
      "anonymous": false,
      "inputs": [
        {
          "indexed": true,
          "internalType": "address",
          "name": "owner",
          "type": "address"
        },
        {
          "indexed": true,
          "internalType": "address",
          "name": "approved",
          "type": "address"
        },
        {
          "indexed": true,
          "internalType": "uint256",
          "name": "tokenId",
          "type": "uint256"
        }
      ],
      "name": "Approval",
      "type": "event"
    },
    {
      "anonymous": false,
      "inputs": [
        {
          "indexed": true,
          "internalType": "address",
          "name": "owner",
          "type": "address"
        },
        {
          "indexed": true,
          "internalType": "address",
          "name": "operator",
          "type": "address"
        },
        {
          "indexed": false,
          "internalType": "bool",
          "name": "approved",
          "type": "bool"
        }
      ],
      "name": "ApprovalForAll",
      "type": "event"
    },
    {
      "anonymous": false,
      "inputs": [
        {
          "indexed": true,
          "internalType": "address",
          "name": "requester",
          "type": "address"
        },
        {
          "indexed": false,
          "internalType": "bytes32",
          "name": "cid",
          "type": "bytes32"
        }
      ],
      "name": "MintApproved",
      "type": "event"
    },
    {
      "anonymous": false,
      "inputs": [
        {
          "indexed": true,
          "internalType": "address",
          "name": "requester",
          "type": "address"
        }
      ],
      "name": "MintRequested",
      "type": "event"
    },
    {
      "anonymous": false,
      "inputs": [
        {
          "indexed": true,
          "internalType": "address",
          "name": "to",
          "type": "address"
        },
        {
          "indexed": true,
          "internalType": "uint256",
          "name": "tokenId",
          "type": "uint256"
        },
        {
          "indexed": false,
          "internalType": "bytes32",
          "name": "cid",
          "type": "bytes32"
        }
      ],
      "name": "Minted",
      "type": "event"
    },
    {
      "anonymous": false,
      "inputs": [
        {
          "indexed": true,
          "internalType": "address",
          "name": "previousOwner",
          "type": "address"
        },
        {
          "indexed": true,
          "internalType": "address",
          "name": "newOwner",
          "type": "address"
        }
      ],
      "name": "OwnershipTransferred",
      "type": "event"
    },
    {
      "anonymous": false,
      "inputs": [
        {
          "indexed": true,
          "internalType": "address",
          "name": "from",
          "type": "address"
        },
        {
          "indexed": true,
          "internalType": "address",
          "name": "to",
          "type": "address"
        },
        {
          "indexed": true,
          "internalType": "uint256",
          "name": "tokenId",
          "type": "uint256"
        }
      ],
      "name": "Transfer",
      "type": "event"
    },
    {
      "inputs": [
        {
          "internalType": "address",
          "name": "to",
          "type": "address"
        },
        {
          "internalType": "uint256",
          "name": "tokenId",
          "type": "uint256"
        }
      ],
      "name": "approve",
      "outputs": [],
      "stateMutability": "nonpayable",
      "type": "function"
    },
    {
      "inputs": [
        {
          "internalType": "address",
          "name": "to",
          "type": "address"
        },
        {
          "internalType": "bytes32",
          "name": "cid",
          "type": "bytes32"
        }
      ],
      "name": "approveMintRequest",
      "outputs": [],
      "stateMutability": "nonpayable",
      "type": "function"
    },
    {
      "inputs": [
        {
          "internalType": "address",
          "name": "owner",
          "type": "address"
        }
      ],
      "name": "balanceOf",
      "outputs": [
        {
          "internalType": "uint256",
          "name": "",
          "type": "uint256"
        }
      ],
      "stateMutability": "view",
      "type": "function"
    },
    {
      "inputs": [
        {
          "internalType": "address",
          "name": "user",
          "type": "address"
        }
      ],
      "name": "burnSBT",
      "outputs": [],
      "stateMutability": "nonpayable",
      "type": "function"
    },
    {
      "inputs": [],
      "name": "claim",
      "outputs": [],
      "stateMutability": "nonpayable",
      "type": "function"
    },
    {
      "inputs": [
        {
          "internalType": "address",
          "name": "",
          "type": "address"
        }
      ],
      "name": "claimedTokenId",
      "outputs": [
        {
          "internalType": "uint256",
          "name": "",
          "type": "uint256"
        }
      ],
      "stateMutability": "view",
      "type": "function"
    },
    {
      "inputs": [
        {
          "internalType": "uint256",
          "name": "tokenId",
          "type": "uint256"
        }
      ],
      "name": "getApproved",
      "outputs": [
        {
          "internalType": "address",
          "name": "",
          "type": "address"
        }
      ],
      "stateMutability": "view",
      "type": "function"
    },
    {
      "inputs": [
        {
          "internalType": "address",
          "name": "owner",
          "type": "address"
        },
        {
          "internalType": "address",
          "name": "operator",
          "type": "address"
        }
      ],
      "name": "isApprovedForAll",
      "outputs": [
        {
          "internalType": "bool",
          "name": "",
          "type": "bool"
        }
      ],
      "stateMutability": "view",
      "type": "function"
    },
    {
      "inputs": [
        {
          "internalType": "address",
          "name": "",
          "type": "address"
        }
      ],
      "name": "mintRequests",
      "outputs": [
        {
          "internalType": "bytes32",
          "name": "cid",
          "type": "bytes32"
        },
        {
          "internalType": "bool",
          "name": "approved",
          "type": "bool"
        },
        {
          "internalType": "bool",
          "name": "claimed",
          "type": "bool"
        }
      ],
      "stateMutability": "view",
      "type": "function"
    },
    {
      "inputs": [],
      "name": "name",
      "outputs": [
        {
          "internalType": "string",
          "name": "",
          "type": "string"
        }
      ],
      "stateMutability": "view",
      "type": "function"
    },
    {
      "inputs": [],
      "name": "owner",
      "outputs": [
        {
          "internalType": "address",
          "name": "",
          "type": "address"
        }
      ],
      "stateMutability": "view",
      "type": "function"
    },
    {
      "inputs": [
        {
          "internalType": "uint256",
          "name": "tokenId",
          "type": "uint256"
        }
      ],
      "name": "ownerOf",
      "outputs": [
        {
          "internalType": "address",
          "name": "",
          "type": "address"
        }
      ],
      "stateMutability": "view",
      "type": "function"
    },
    {
      "inputs": [],
      "name": "registry",
      "outputs": [
        {
          "internalType": "contract IISBTRegistry",
          "name": "",
          "type": "address"
        }
      ],
      "stateMutability": "view",
      "type": "function"
    },
    {
      "inputs": [],
      "name": "renounceOwnership",
      "outputs": [],
      "stateMutability": "nonpayable",
      "type": "function"
    },
    {
      "inputs": [],
      "name": "requestMint",
      "outputs": [],
      "stateMutability": "nonpayable",
      "type": "function"
    },
    {
      "inputs": [
        {
          "internalType": "address",
          "name": "from",
          "type": "address"
        },
        {
          "internalType": "address",
          "name": "to",
          "type": "address"
        },
        {
          "internalType": "uint256",
          "name": "tokenId",
          "type": "uint256"
        }
      ],
      "name": "safeTransferFrom",
      "outputs": [],
      "stateMutability": "nonpayable",
      "type": "function"
    },
    {
      "inputs": [
        {
          "internalType": "address",
          "name": "from",
          "type": "address"
        },
        {
          "internalType": "address",
          "name": "to",
          "type": "address"
        },
        {
          "internalType": "uint256",
          "name": "tokenId",
          "type": "uint256"
        },
        {
          "internalType": "bytes",
          "name": "data",
          "type": "bytes"
        }
      ],
      "name": "safeTransferFrom",
      "outputs": [],
      "stateMutability": "nonpayable",
      "type": "function"
    },
    {
      "inputs": [
        {
          "internalType": "address",
          "name": "operator",
          "type": "address"
        },
        {
          "internalType": "bool",
          "name": "approved",
          "type": "bool"
        }
      ],
      "name": "setApprovalForAll",
      "outputs": [],
      "stateMutability": "nonpayable",
      "type": "function"
    },
    {
      "inputs": [
        {
          "internalType": "bytes4",
          "name": "interfaceId",
          "type": "bytes4"
        }
      ],
      "name": "supportsInterface",
      "outputs": [
        {
          "internalType": "bool",
          "name": "",
          "type": "bool"
        }
      ],
      "stateMutability": "view",
      "type": "function"
    },
    {
      "inputs": [],
      "name": "symbol",
      "outputs": [
        {
          "internalType": "string",
          "name": "",
          "type": "string"
        }
      ],
      "stateMutability": "view",
      "type": "function"
    },
    {
      "inputs": [],
      "name": "tokenIdCounter",
      "outputs": [
        {
          "internalType": "uint256",
          "name": "",
          "type": "uint256"
        }
      ],
      "stateMutability": "view",
      "type": "function"
    },
    {
      "inputs": [
        {
          "internalType": "uint256",
          "name": "tokenId",
          "type": "uint256"
        }
      ],
      "name": "tokenURI",
      "outputs": [
        {
          "internalType": "string",
          "name": "",
          "type": "string"
        }
      ],
      "stateMutability": "view",
      "type": "function"
    },
    {
      "inputs": [
        {
          "internalType": "address",
          "name": "from",
          "type": "address"
        },
        {
          "internalType": "address",
          "name": "to",
          "type": "address"
        },
        {
          "internalType": "uint256",
          "name": "tokenId",
          "type": "uint256"
        }
      ],
      "name": "transferFrom",
      "outputs": [],
      "stateMutability": "nonpayable",
      "type": "function"
    },
    {
      "inputs": [
        {
          "internalType": "address",
          "name": "newOwner",
          "type": "address"
        }
      ],
      "name": "transferOwnership",
      "outputs": [],
      "stateMutability": "nonpayable",
      "type": "function"
    }
  ],
  "bytecode": "0x60a06040523480156200001157600080fd5b50604051620020a2380380620020a2833981016040819052620000349162000292565b8083836000620000458382620003b1565b506001620000548282620003b1565b5050506001600160a01b0381166200008757604051631e4fbdf760e01b8152600060048201526024015b60405180910390fd5b62000092816200015e565b506001600160a01b0384811660808190526040516322af8f9b60e11b815291831660048301529063455f1f3690602401602060405180830381865afa158015620000e0573d6000803e3d6000fd5b505050506040513d601f19601f820116820180604052508101906200010691906200047d565b620001545760405162461bcd60e51b815260206004820152601e60248201527f4f776e6572206973206e6f74206120766572696669656420656e74697479000060448201526064016200007e565b50505050620004a8565b600680546001600160a01b038381166001600160a01b0319831681179093556040519116919082907f8be0079c531659141344cd1fd0a4f28419497f9722a3daafe3b4186f6b6457e090600090a35050565b80516001600160a01b0381168114620001c857600080fd5b919050565b634e487b7160e01b600052604160045260246000fd5b600082601f830112620001f557600080fd5b81516001600160401b0380821115620002125762000212620001cd565b604051601f8301601f19908116603f011681019082821181831017156200023d576200023d620001cd565b816040528381526020925086838588010111156200025a57600080fd5b600091505b838210156200027e57858201830151818301840152908201906200025f565b600093810190920192909252949350505050565b60008060008060808587031215620002a957600080fd5b620002b485620001b0565b60208601519094506001600160401b0380821115620002d257600080fd5b620002e088838901620001e3565b94506040870151915080821115620002f757600080fd5b506200030687828801620001e3565b9250506200031760608601620001b0565b905092959194509250565b600181811c908216806200033757607f821691505b6020821081036200035857634e487b7160e01b600052602260045260246000fd5b50919050565b601f821115620003ac57600081815260208120601f850160051c81016020861015620003875750805b601f850160051c820191505b81811015620003a85782815560010162000393565b5050505b505050565b81516001600160401b03811115620003cd57620003cd620001cd565b620003e581620003de845462000322565b846200035e565b602080601f8311600181146200041d5760008415620004045750858301515b600019600386901b1c1916600185901b178555620003a8565b600085815260208120601f198616915b828110156200044e578886015182559484019460019091019084016200042d565b50858210156200046d5787850151600019600388901b60f8161c191681555b5050505050600190811b01905550565b6000602082840312156200049057600080fd5b81518015158114620004a157600080fd5b9392505050565b608051611bc2620004e06000396000818161025c01528181610538015281816108a901528181610b8a0152610e360152611bc26000f3fe608060405234801561001057600080fd5b50600436106101585760003560e01c80638da5cb5b116100c3578063b88d4fde1161007c578063b88d4fde146102db578063c87b56dd146102ee578063ca5e0e8814610301578063de96c67d14610351578063e985e9c514610364578063f2fde38b1461037757600080fd5b80638da5cb5b1461027e5780638df74c001461028f57806395d89b41146102af57806398bdf6f5146102b7578063a22cb465146102c0578063afb7bed9146102d357600080fd5b806342842e0e1161011557806342842e0e146102005780634e71d92d146102135780636352211e1461021b57806370a082311461022e578063715018a61461024f5780637b1039991461025757600080fd5b806301ffc9a71461015d57806306fdde0314610185578063081812fc1461019a578063095ea7b3146101c557806323b872dd146101da578063374e7fa3146101ed575b600080fd5b61017061016b36600461171a565b61038a565b60405190151581526020015b60405180910390f35b61018d6103dc565b60405161017c919061178e565b6101ad6101a83660046117a1565b61046e565b6040516001600160a01b03909116815260200161017c565b6101d86101d33660046117cf565b610497565b005b6101d86101e83660046117fb565b6104a6565b6101d86101fb36600461183c565b610536565b6101d861020e3660046117fb565b610648565b6101d8610668565b6101ad6102293660046117a1565b610813565b61024161023c36600461183c565b61081e565b60405190815260200161017c565b6101d8610866565b6101ad7f000000000000000000000000000000000000000000000000000000000000000081565b6006546001600160a01b03166101ad565b61024161029d36600461183c565b60096020526000908152604090205481565b61018d61087a565b61024160075481565b6101d86102ce366004611867565b610889565b6101d8610894565b6101d86102e93660046118b6565b610a48565b61018d6102fc3660046117a1565b610a60565b61033461030f36600461183c565b6008602052600090815260409020805460019091015460ff8082169161010090041683565b60408051938452911515602084015215159082015260600161017c565b6101d861035f3660046117cf565b610b63565b610170610372366004611996565b610de1565b6101d861038536600461183c565b610e0f565b60006001600160e01b031982166380ac58cd60e01b14806103bb57506001600160e01b03198216635b5e139f60e01b145b806103d657506301ffc9a760e01b6001600160e01b03198316145b92915050565b6060600080546103eb906119c4565b80601f0160208091040260200160405190810160405280929190818152602001828054610417906119c4565b80156104645780601f1061043957610100808354040283529160200191610464565b820191906000526020600020905b81548152906001019060200180831161044757829003601f168201915b5050505050905090565b600061047982610f04565b506000828152600460205260409020546001600160a01b03166103d6565b6104a2828233610f3d565b5050565b6001600160a01b0382166104d557604051633250574960e11b8152600060048201526024015b60405180910390fd5b60006104e2838333610f4a565b9050836001600160a01b0316816001600160a01b031614610530576040516364283d7b60e01b81526001600160a01b03808616600483015260248201849052821660448201526064016104cc565b50505050565b7f00000000000000000000000000000000000000000000000000000000000000006001600160a01b0316638da5cb5b6040518163ffffffff1660e01b8152600401602060405180830381865afa158015610594573d6000803e3d6000fd5b505050506040513d601f19601f820116820180604052508101906105b891906119fe565b6001600160a01b0316336001600160a01b03161461060e5760405162461bcd60e51b815260206004820152601360248201527227b7363c903932b3b4b9ba393c9037bbb732b960691b60448201526064016104cc565b6001600160a01b0381166000818152600960205260409020549061063182610813565b6001600160a01b0316036104a2576104a281610fce565b61066383838360405180602001604052806000815250610a48565b505050565b336000908152600860205260409020600181015460ff166106d55760405162461bcd60e51b815260206004820152602160248201527f5265717565737420686173206e6f74206265656e20617070726f7665642079656044820152601d60fa1b60648201526084016104cc565b6001810154610100900460ff16156107255760405162461bcd60e51b815260206004820152601360248201527214d09508185b1c9958591e4818db185a5b5959606a1b60448201526064016104cc565b80546107825760405162461bcd60e51b815260206004820152602660248201527f4d657461646174612043494420686173206e6f74206265656e207365742062796044820152651030b236b4b760d11b60648201526084016104cc565b600060076000815461079390611a31565b918290555090506107a43382611009565b81546000828152600a602090815260408083209390935560018501805461ff0019166101001790553380835260098252918390208490558454925192835283927fc263b302aec62d29105026245f19e16f8e0137066ccd4a8bd941f716bd4096bb910160405180910390a35050565b60006103d682610f04565b60006001600160a01b03821661084a576040516322718ad960e21b8152600060048201526024016104cc565b506001600160a01b031660009081526003602052604090205490565b61086e61106e565b610878600061109b565b565b6060600180546103eb906119c4565b6104a23383836110ed565b6040516322af8f9b60e11b81523360048201527f00000000000000000000000000000000000000000000000000000000000000006001600160a01b03169063455f1f3690602401602060405180830381865afa1580156108f8573d6000803e3d6000fd5b505050506040513d601f19601f8201168201806040525081019061091c9190611a4a565b6109685760405162461bcd60e51b815260206004820152601f60248201527f53656e646572206973206e6f74206120766572696669656420656e746974790060448201526064016104cc565b33600090815260086020526040902060010154610100900460ff16156109c65760405162461bcd60e51b815260206004820152601360248201527214d09508185b1c9958591e4818db185a5b5959606a1b60448201526064016104cc565b604080516060810182526000808252602080830182815283850183815233808552600890935285842094518555905160019094018054915161ffff1990921694151561ff001916949094176101009115159190910217909255915190917f60244e2745dc4a0e89789b951365006a54a6602c27f82f8574a5956df956892a91a2565b610a538484846104a6565b610530338585858561118c565b6000818152600260205260409020546060906001600160a01b0316610ad75760405162461bcd60e51b815260206004820152602760248201527f4552433732313a2055524920717565727920666f72206e6f6e6578697374656e6044820152663a103a37b5b2b760c91b60648201526084016104cc565b6000828152600a602052604090205480610b335760405162461bcd60e51b815260206004820152601960248201527f4552433732313a20546f6b656e20555249206e6f74207365740000000000000060448201526064016104cc565b610b3c816112b7565b604051602001610b4c9190611a67565b604051602081830303815290604052915050919050565b610b6b61106e565b6040516322af8f9b60e11b81526001600160a01b0383811660048301527f0000000000000000000000000000000000000000000000000000000000000000169063455f1f3690602401602060405180830381865afa158015610bd1573d6000803e3d6000fd5b505050506040513d601f19601f82011682018060405250810190610bf59190611a4a565b610c4c5760405162461bcd60e51b815260206004820152602260248201527f526563697069656e74206973206e6f74206120766572696669656420656e7469604482015261747960f01b60648201526084016104cc565b6001600160a01b03821660009081526008602052604090206001015460ff1615610cb85760405162461bcd60e51b815260206004820152601860248201527f5265717565737420616c726561647920617070726f766564000000000000000060448201526064016104cc565b6001600160a01b038216600090815260086020526040902060010154610100900460ff1615610d355760405162461bcd60e51b815260206004820152602360248201527f53425420616c726561647920636c61696d65642062792074686973206164647260448201526265737360e81b60648201526084016104cc565b80610d785760405162461bcd60e51b81526020600482015260136024820152724349442063616e6e6f7420626520656d70747960681b60448201526064016104cc565b6001600160a01b038216600081815260086020526040908190208381556001908101805460ff19169091179055517f8c729d543549551b3216bf31ca8666cd2b482d85932a55fc093070569dfde13990610dd59084815260200190565b60405180910390a25050565b6001600160a01b03918216600090815260056020908152604080832093909416825291909152205460ff1690565b610e1761106e565b6040516322af8f9b60e11b81526001600160a01b0382811660048301527f0000000000000000000000000000000000000000000000000000000000000000169063455f1f3690602401602060405180830381865afa158015610e7d573d6000803e3d6000fd5b505050506040513d601f19601f82011682018060405250810190610ea19190611a4a565b610ef85760405162461bcd60e51b815260206004820152602260248201527f4e6577206f776e6572206973206e6f74206120766572696669656420656e7469604482015261747960f01b60648201526084016104cc565b610f01816113c7565b50565b6000818152600260205260408120546001600160a01b0316806103d657604051637e27328960e01b8152600481018490526024016104cc565b6106638383836001611402565b6000828152600260205260408120546001600160a01b0316801580610f7657506001600160a01b038516155b610fba5760405162461bcd60e51b81526020600482015260156024820152745342543a206e6f6e2d7472616e7366657261626c6560581b60448201526064016104cc565b610fc5858585611508565b95945050505050565b6000610fdd6000836000610f4a565b90506001600160a01b0381166104a257604051637e27328960e01b8152600481018390526024016104cc565b6001600160a01b03821661103357604051633250574960e11b8152600060048201526024016104cc565b600061104183836000610f4a565b90506001600160a01b03811615610663576040516339e3563760e11b8152600060048201526024016104cc565b6006546001600160a01b031633146108785760405163118cdaa760e01b81523360048201526024016104cc565b600680546001600160a01b038381166001600160a01b0319831681179093556040519116919082907f8be0079c531659141344cd1fd0a4f28419497f9722a3daafe3b4186f6b6457e090600090a35050565b6001600160a01b03821661111f57604051630b61174360e31b81526001600160a01b03831660048201526024016104cc565b6001600160a01b03838116600081815260056020908152604080832094871680845294825291829020805460ff191686151590811790915591519182527f17307eab39ab6107e8899845ad3d59bd9653f200f220920489ca2b5937696c31910160405180910390a3505050565b6001600160a01b0383163b156112b057604051630a85bd0160e11b81526001600160a01b0384169063150b7a02906111ce908890889087908790600401611a96565b6020604051808303816000875af1925050508015611209575060408051601f3d908101601f1916820190925261120691810190611ad3565b60015b611272573d808015611237576040519150601f19603f3d011682016040523d82523d6000602084013e61123c565b606091505b50805160000361126a57604051633250574960e11b81526001600160a01b03851660048201526024016104cc565b805160208201fd5b6001600160e01b03198116630a85bd0160e11b146112ae57604051633250574960e11b81526001600160a01b03851660048201526024016104cc565b505b5050505050565b6040805181815260608181018352916000919060208201818036833701905050905060005b60208110156113b55761131460048583602081106112fc576112fc611af0565b1a60f81b6001600160f81b031916901c60f81c611601565b82611320836002611b06565b8151811061133057611330611af0565b60200101906001600160f81b031916908160001a90535061136584826020811061135c5761135c611af0565b1a600f16611601565b82611371836002611b06565b61137c906001611b1d565b8151811061138c5761138c611af0565b60200101906001600160f81b031916908160001a905350806113ad81611a31565b9150506112dc565b5080604051602001610b4c9190611b30565b6113cf61106e565b6001600160a01b0381166113f957604051631e4fbdf760e01b8152600060048201526024016104cc565b610f018161109b565b808061141657506001600160a01b03821615155b156114d857600061142684610f04565b90506001600160a01b038316158015906114525750826001600160a01b0316816001600160a01b031614155b801561146557506114638184610de1565b155b1561148e5760405163a9fbf51f60e01b81526001600160a01b03841660048201526024016104cc565b81156114d65783856001600160a01b0316826001600160a01b03167f8c5be1e5ebec7d5bd14f71427d1e84f3dd0314c0f7b2291e5b200ac8c7c3b92560405160405180910390a45b505b5050600090815260046020526040902080546001600160a01b0319166001600160a01b0392909216919091179055565b6000828152600260205260408120546001600160a01b03908116908316156115355761153581848661163a565b6001600160a01b0381161561157357611552600085600080611402565b6001600160a01b038116600090815260036020526040902080546000190190555b6001600160a01b038516156115a2576001600160a01b0385166000908152600360205260409020805460010190555b60008481526002602052604080822080546001600160a01b0319166001600160a01b0389811691821790925591518793918516917fddf252ad1be2c89b69c2b068fc378daa952ba7f163c4a11628f55a4df523b3ef91a4949350505050565b6000600a8260ff1610156116235761161a826030611b5a565b60f81b92915050565b600a611630836061611b5a565b61161a9190611b73565b61164583838361169e565b610663576001600160a01b03831661167357604051637e27328960e01b8152600481018290526024016104cc565b60405163177e802f60e01b81526001600160a01b0383166004820152602481018290526044016104cc565b60006001600160a01b038316158015906116fc5750826001600160a01b0316846001600160a01b031614806116d857506116d88484610de1565b806116fc57506000828152600460205260409020546001600160a01b038481169116145b949350505050565b6001600160e01b031981168114610f0157600080fd5b60006020828403121561172c57600080fd5b813561173781611704565b9392505050565b60005b83811015611759578181015183820152602001611741565b50506000910152565b6000815180845261177a81602086016020860161173e565b601f01601f19169290920160200192915050565b6020815260006117376020830184611762565b6000602082840312156117b357600080fd5b5035919050565b6001600160a01b0381168114610f0157600080fd5b600080604083850312156117e257600080fd5b82356117ed816117ba565b946020939093013593505050565b60008060006060848603121561181057600080fd5b833561181b816117ba565b9250602084013561182b816117ba565b929592945050506040919091013590565b60006020828403121561184e57600080fd5b8135611737816117ba565b8015158114610f0157600080fd5b6000806040838503121561187a57600080fd5b8235611885816117ba565b9150602083013561189581611859565b809150509250929050565b634e487b7160e01b600052604160045260246000fd5b600080600080608085870312156118cc57600080fd5b84356118d7816117ba565b935060208501356118e7816117ba565b925060408501359150606085013567ffffffffffffffff8082111561190b57600080fd5b818701915087601f83011261191f57600080fd5b813581811115611931576119316118a0565b604051601f8201601f19908116603f01168101908382118183101715611959576119596118a0565b816040528281528a602084870101111561197257600080fd5b82602086016020830137600060208483010152809550505050505092959194509250565b600080604083850312156119a957600080fd5b82356119b4816117ba565b91506020830135611895816117ba565b600181811c908216806119d857607f821691505b6020821081036119f857634e487b7160e01b600052602260045260246000fd5b50919050565b600060208284031215611a1057600080fd5b8151611737816117ba565b634e487b7160e01b600052601160045260246000fd5b600060018201611a4357611a43611a1b565b5060010190565b600060208284031215611a5c57600080fd5b815161173781611859565b66697066733a2f2f60c81b815260008251611a8981600785016020870161173e565b9190910160070192915050565b6001600160a01b0385811682528416602082015260408101839052608060608201819052600090611ac990830184611762565b9695505050505050565b600060208284031215611ae557600080fd5b815161173781611704565b634e487b7160e01b600052603260045260246000fd5b80820281158282048414176103d6576103d6611a1b565b808201808211156103d6576103d6611a1b565b61060f60f31b815260008251611b4d81600285016020870161173e565b9190910160020192915050565b60ff81811683821601908111156103d6576103d6611a1b565b60ff82811682821603908111156103d6576103d6611a1b56fea264697066735822122098275c9eeda22118eed7196e0f0df6ff643e682b7d632ba12c807c0a9b65cf9c64736f6c63430008140033",
  "linkReferences": {},
  "deployedLinkReferences": {}
}