{
  "_format": "hh-sol-artifact-1",
  "contractName": "MerkleClaimSBT",
  "sourceName": "src/MerkleClaimSBT.sol",
  "abi": [
    {
      "inputs": [
        {
          "internalType": "string",
          "name": "name_",
          "type": "string"
        },
        {
          "internalType": "string",
          "name": "symbol_",
          "type": "string"
        },
        {
          "internalType": "address",
          "name": "owner_",
          "type": "address"
        },
        {
          "internalType": "bytes32",
          "name": "_merkleRoot",
          "type": "bytes32"
        },
        {
          "internalType": "string",
          "name": "_metadataURI",
          "type": "string"
        }
      ],
      "stateMutability": "nonpayable",
      "type": "constructor"
    },
    {
      "inputs": [
        {
          "internalType": "address",
          "name": "sender",
          "type": "address"
        },
        {
          "internalType": "uint256",
          "name": "tokenId",
          "type": "uint256"
        },
        {
          "internalType": "address",
          "name": "owner",
          "type": "address"
        }
      ],
      "name": "ERC721IncorrectOwner",
      "type": "error"
    },
    {
      "inputs": [
        {
          "internalType": "address",
          "name": "operator",
          "type": "address"
        },
        {
          "internalType": "uint256",
          "name": "tokenId",
          "type": "uint256"
        }
      ],
      "name": "ERC721InsufficientApproval",
      "type": "error"
    },
    {
      "inputs": [
        {
          "internalType": "address",
          "name": "approver",
          "type": "address"
        }
      ],
      "name": "ERC721InvalidApprover",
      "type": "error"
    },
    {
      "inputs": [
        {
          "internalType": "address",
          "name": "operator",
          "type": "address"
        }
      ],
      "name": "ERC721InvalidOperator",
      "type": "error"
    },
    {
      "inputs": [
        {
          "internalType": "address",
          "name": "owner",
          "type": "address"
        }
      ],
      "name": "ERC721InvalidOwner",
      "type": "error"
    },
    {
      "inputs": [
        {
          "internalType": "address",
          "name": "receiver",
          "type": "address"
        }
      ],
      "name": "ERC721InvalidReceiver",
      "type": "error"
    },
    {
      "inputs": [
        {
          "internalType": "address",
          "name": "sender",
          "type": "address"
        }
      ],
      "name": "ERC721InvalidSender",
      "type": "error"
    },
    {
      "inputs": [
        {
          "internalType": "uint256",
          "name": "tokenId",
          "type": "uint256"
        }
      ],
      "name": "ERC721NonexistentToken",
      "type": "error"
    },
    {
      "inputs": [
        {
          "internalType": "address",
          "name": "owner",
          "type": "address"
        }
      ],
      "name": "OwnableInvalidOwner",
      "type": "error"
    },
    {
      "inputs": [
        {
          "internalType": "address",
          "name": "account",
          "type": "address"
        }
      ],
      "name": "OwnableUnauthorizedAccount",
      "type": "error"
    },
    {
      "anonymous": false,
      "inputs": [
        {
          "indexed": true,
          "internalType": "address",
          "name": "owner",
          "type": "address"
        },
        {
          "indexed": true,
          "internalType": "address",
          "name": "approved",
          "type": "address"
        },
        {
          "indexed": true,
          "internalType": "uint256",
          "name": "tokenId",
          "type": "uint256"
        }
      ],
      "name": "Approval",
      "type": "event"
    },
    {
      "anonymous": false,
      "inputs": [
        {
          "indexed": true,
          "internalType": "address",
          "name": "owner",
          "type": "address"
        },
        {
          "indexed": true,
          "internalType": "address",
          "name": "operator",
          "type": "address"
        },
        {
          "indexed": false,
          "internalType": "bool",
          "name": "approved",
          "type": "bool"
        }
      ],
      "name": "ApprovalForAll",
      "type": "event"
    },
    {
      "anonymous": false,
      "inputs": [
        {
          "indexed": false,
          "internalType": "uint256",
          "name": "_fromTokenId",
          "type": "uint256"
        },
        {
          "indexed": false,
          "internalType": "uint256",
          "name": "_toTokenId",
          "type": "uint256"
        }
      ],
      "name": "BatchMetadataUpdate",
      "type": "event"
    },
    {
      "anonymous": false,
      "inputs": [
        {
          "indexed": true,
          "internalType": "address",
          "name": "claimant",
          "type": "address"
        },
        {
          "indexed": true,
          "internalType": "uint256",
          "name": "tokenId",
          "type": "uint256"
        }
      ],
      "name": "Claimed",
      "type": "event"
    },
    {
      "anonymous": false,
      "inputs": [
        {
          "indexed": false,
          "internalType": "uint256",
          "name": "_tokenId",
          "type": "uint256"
        }
      ],
      "name": "MetadataUpdate",
      "type": "event"
    },
    {
      "anonymous": false,
      "inputs": [
        {
          "indexed": true,
          "internalType": "address",
          "name": "previousOwner",
          "type": "address"
        },
        {
          "indexed": true,
          "internalType": "address",
          "name": "newOwner",
          "type": "address"
        }
      ],
      "name": "OwnershipTransferred",
      "type": "event"
    },
    {
      "anonymous": false,
      "inputs": [
        {
          "indexed": true,
          "internalType": "address",
          "name": "from",
          "type": "address"
        },
        {
          "indexed": true,
          "internalType": "address",
          "name": "to",
          "type": "address"
        },
        {
          "indexed": true,
          "internalType": "uint256",
          "name": "tokenId",
          "type": "uint256"
        }
      ],
      "name": "Transfer",
      "type": "event"
    },
    {
      "inputs": [
        {
          "internalType": "address",
          "name": "to",
          "type": "address"
        },
        {
          "internalType": "uint256",
          "name": "tokenId",
          "type": "uint256"
        }
      ],
      "name": "approve",
      "outputs": [],
      "stateMutability": "nonpayable",
      "type": "function"
    },
    {
      "inputs": [
        {
          "internalType": "address",
          "name": "owner",
          "type": "address"
        }
      ],
      "name": "balanceOf",
      "outputs": [
        {
          "internalType": "uint256",
          "name": "",
          "type": "uint256"
        }
      ],
      "stateMutability": "view",
      "type": "function"
    },
    {
      "inputs": [
        {
          "internalType": "bytes32[]",
          "name": "merkleProof",
          "type": "bytes32[]"
        }
      ],
      "name": "claim",
      "outputs": [],
      "stateMutability": "nonpayable",
      "type": "function"
    },
    {
      "inputs": [
        {
          "internalType": "uint256",
          "name": "tokenId",
          "type": "uint256"
        }
      ],
      "name": "getApproved",
      "outputs": [
        {
          "internalType": "address",
          "name": "",
          "type": "address"
        }
      ],
      "stateMutability": "view",
      "type": "function"
    },
    {
      "inputs": [
        {
          "internalType": "address",
          "name": "",
          "type": "address"
        }
      ],
      "name": "hasClaimed",
      "outputs": [
        {
          "internalType": "bool",
          "name": "",
          "type": "bool"
        }
      ],
      "stateMutability": "view",
      "type": "function"
    },
    {
      "inputs": [
        {
          "internalType": "address",
          "name": "owner",
          "type": "address"
        },
        {
          "internalType": "address",
          "name": "operator",
          "type": "address"
        }
      ],
      "name": "isApprovedForAll",
      "outputs": [
        {
          "internalType": "bool",
          "name": "",
          "type": "bool"
        }
      ],
      "stateMutability": "view",
      "type": "function"
    },
    {
      "inputs": [],
      "name": "merkleRoot",
      "outputs": [
        {
          "internalType": "bytes32",
          "name": "",
          "type": "bytes32"
        }
      ],
      "stateMutability": "view",
      "type": "function"
    },
    {
      "inputs": [],
      "name": "metadataURI",
      "outputs": [
        {
          "internalType": "string",
          "name": "",
          "type": "string"
        }
      ],
      "stateMutability": "view",
      "type": "function"
    },
    {
      "inputs": [],
      "name": "name",
      "outputs": [
        {
          "internalType": "string",
          "name": "",
          "type": "string"
        }
      ],
      "stateMutability": "view",
      "type": "function"
    },
    {
      "inputs": [],
      "name": "owner",
      "outputs": [
        {
          "internalType": "address",
          "name": "",
          "type": "address"
        }
      ],
      "stateMutability": "view",
      "type": "function"
    },
    {
      "inputs": [
        {
          "internalType": "uint256",
          "name": "tokenId",
          "type": "uint256"
        }
      ],
      "name": "ownerOf",
      "outputs": [
        {
          "internalType": "address",
          "name": "",
          "type": "address"
        }
      ],
      "stateMutability": "view",
      "type": "function"
    },
    {
      "inputs": [],
      "name": "renounceOwnership",
      "outputs": [],
      "stateMutability": "nonpayable",
      "type": "function"
    },
    {
      "inputs": [
        {
          "internalType": "address",
          "name": "from",
          "type": "address"
        },
        {
          "internalType": "address",
          "name": "to",
          "type": "address"
        },
        {
          "internalType": "uint256",
          "name": "tokenId",
          "type": "uint256"
        }
      ],
      "name": "safeTransferFrom",
      "outputs": [],
      "stateMutability": "nonpayable",
      "type": "function"
    },
    {
      "inputs": [
        {
          "internalType": "address",
          "name": "from",
          "type": "address"
        },
        {
          "internalType": "address",
          "name": "to",
          "type": "address"
        },
        {
          "internalType": "uint256",
          "name": "tokenId",
          "type": "uint256"
        },
        {
          "internalType": "bytes",
          "name": "data",
          "type": "bytes"
        }
      ],
      "name": "safeTransferFrom",
      "outputs": [],
      "stateMutability": "nonpayable",
      "type": "function"
    },
    {
      "inputs": [
        {
          "internalType": "address",
          "name": "operator",
          "type": "address"
        },
        {
          "internalType": "bool",
          "name": "approved",
          "type": "bool"
        }
      ],
      "name": "setApprovalForAll",
      "outputs": [],
      "stateMutability": "nonpayable",
      "type": "function"
    },
    {
      "inputs": [
        {
          "internalType": "bytes4",
          "name": "interfaceId",
          "type": "bytes4"
        }
      ],
      "name": "supportsInterface",
      "outputs": [
        {
          "internalType": "bool",
          "name": "",
          "type": "bool"
        }
      ],
      "stateMutability": "view",
      "type": "function"
    },
    {
      "inputs": [],
      "name": "symbol",
      "outputs": [
        {
          "internalType": "string",
          "name": "",
          "type": "string"
        }
      ],
      "stateMutability": "view",
      "type": "function"
    },
    {
      "inputs": [
        {
          "internalType": "uint256",
          "name": "tokenId",
          "type": "uint256"
        }
      ],
      "name": "tokenURI",
      "outputs": [
        {
          "internalType": "string",
          "name": "",
          "type": "string"
        }
      ],
      "stateMutability": "view",
      "type": "function"
    },
    {
      "inputs": [
        {
          "internalType": "address",
          "name": "from",
          "type": "address"
        },
        {
          "internalType": "address",
          "name": "to",
          "type": "address"
        },
        {
          "internalType": "uint256",
          "name": "tokenId",
          "type": "uint256"
        }
      ],
      "name": "transferFrom",
      "outputs": [],
      "stateMutability": "nonpayable",
      "type": "function"
    },
    {
      "inputs": [
        {
          "internalType": "address",
          "name": "newOwner",
          "type": "address"
        }
      ],
      "name": "transferOwnership",
      "outputs": [],
      "stateMutability": "nonpayable",
      "type": "function"
    }
  ],
  "bytecode": "0x60a06040523480156200001157600080fd5b5060405162001c4a38038062001c4a8339810160408190526200003491620001c8565b828585600062000045838262000314565b50600162000054828262000314565b5050506001600160a01b0381166200008657604051631e4fbdf760e01b81526000600482015260240160405180910390fd5b6200009181620000b1565b5060808290526008620000a5828262000314565b505050505050620003e0565b600780546001600160a01b038381166001600160a01b0319831681179093556040519116919082907f8be0079c531659141344cd1fd0a4f28419497f9722a3daafe3b4186f6b6457e090600090a35050565b634e487b7160e01b600052604160045260246000fd5b600082601f8301126200012b57600080fd5b81516001600160401b038082111562000148576200014862000103565b604051601f8301601f19908116603f0116810190828211818310171562000173576200017362000103565b816040528381526020925086838588010111156200019057600080fd5b600091505b83821015620001b4578582018301518183018401529082019062000195565b600093810190920192909252949350505050565b600080600080600060a08688031215620001e157600080fd5b85516001600160401b0380821115620001f957600080fd5b6200020789838a0162000119565b965060208801519150808211156200021e57600080fd5b6200022c89838a0162000119565b604089015190965091506001600160a01b03821682146200024c57600080fd5b606088015160808901519295509350808211156200026957600080fd5b50620002788882890162000119565b9150509295509295909350565b600181811c908216806200029a57607f821691505b602082108103620002bb57634e487b7160e01b600052602260045260246000fd5b50919050565b601f8211156200030f57600081815260208120601f850160051c81016020861015620002ea5750805b601f850160051c820191505b818110156200030b57828155600101620002f6565b5050505b505050565b81516001600160401b0381111562000330576200033062000103565b620003488162000341845462000285565b84620002c1565b602080601f831160018114620003805760008415620003675750858301515b600019600386901b1c1916600185901b1785556200030b565b600085815260208120601f198616915b82811015620003b15788860151825594840194600190910190840162000390565b5085821015620003d05787850151600019600388901b60f8161c191681555b5050505050600190811b01905550565b60805161184762000403600039600081816101ce015261066101526118476000f3fe608060405234801561001057600080fd5b506004361061012c5760003560e01c8063715018a6116100ad578063b391c50811610071578063b391c5081461028e578063b88d4fde146102a1578063c87b56dd146102b4578063e985e9c5146102c7578063f2fde38b146102da57600080fd5b8063715018a61461023757806373b2e80e1461023f5780638da5cb5b1461026257806395d89b4114610273578063a22cb4651461027b57600080fd5b806323b872dd116100f457806323b872dd146101b65780632eb4a7ab146101c957806342842e0e146101fe5780636352211e1461021157806370a082311461022457600080fd5b806301ffc9a71461013157806303ee438c1461015957806306fdde031461016e578063081812fc14610176578063095ea7b3146101a1575b600080fd5b61014461013f3660046112ff565b6102ed565b60405190151581526020015b60405180910390f35b610161610318565b604051610150919061136c565b6101616103a6565b61018961018436600461137f565b610438565b6040516001600160a01b039091168152602001610150565b6101b46101af3660046113b4565b610461565b005b6101b46101c43660046113de565b610470565b6101f07f000000000000000000000000000000000000000000000000000000000000000081565b604051908152602001610150565b6101b461020c3660046113de565b610500565b61018961021f36600461137f565b610520565b6101f061023236600461141a565b61052b565b6101b4610573565b61014461024d36600461141a565b600a6020526000908152604090205460ff1681565b6007546001600160a01b0316610189565b610161610587565b6101b4610289366004611435565b610596565b6101b461029c366004611471565b6105a1565b6101b46102af3660046114fc565b6107c9565b6101616102c236600461137f565b6107e1565b6101446102d53660046115d8565b6108f2565b6101b46102e836600461141a565b610920565b60006001600160e01b03198216632483248360e11b148061031257506103128261095e565b92915050565b600880546103259061160b565b80601f01602080910402602001604051908101604052809291908181526020018280546103519061160b565b801561039e5780601f106103735761010080835404028352916020019161039e565b820191906000526020600020905b81548152906001019060200180831161038157829003601f168201915b505050505081565b6060600080546103b59061160b565b80601f01602080910402602001604051908101604052809291908181526020018280546103e19061160b565b801561042e5780601f106104035761010080835404028352916020019161042e565b820191906000526020600020905b81548152906001019060200180831161041157829003601f168201915b5050505050905090565b6000610443826109ae565b506000828152600460205260409020546001600160a01b0316610312565b61046c8282336109e7565b5050565b6001600160a01b03821661049f57604051633250574960e11b8152600060048201526024015b60405180910390fd5b60006104ac8383336109f4565b9050836001600160a01b0316816001600160a01b0316146104fa576040516364283d7b60e01b81526001600160a01b0380861660048301526024820184905282166044820152606401610496565b50505050565b61051b838383604051806020016040528060008152506107c9565b505050565b6000610312826109ae565b60006001600160a01b038216610557576040516322718ad960e21b815260006004820152602401610496565b506001600160a01b031660009081526003602052604090205490565b61057b610a84565b6105856000610ab1565b565b6060600180546103b59061160b565b61046c338383610b03565b336000908152600a602052604090205460ff16156105f35760405162461bcd60e51b815260206004820152600f60248201526e105b1c9958591e4818db185a5b5959608a1b6044820152606401610496565b6040516bffffffffffffffffffffffff193360601b16602082015260009060340160405160208183030381529060405280519060200120905061068c8383808060200260200160405190810160405280939291908181526020018383602002808284376000920191909152507f00000000000000000000000000000000000000000000000000000000000000009250859150610ba29050565b6106c85760405162461bcd60e51b815260206004820152600d60248201526c24b73b30b634b210383937b7b360991b6044820152606401610496565b336000908152600a60205260408120805460ff191660011790556009805482906106f190611645565b918290555090506107023382610bb8565b61079681600880546107139061160b565b80601f016020809104026020016040519081016040528092919081815260200182805461073f9061160b565b801561078c5780601f106107615761010080835404028352916020019161078c565b820191906000526020600020905b81548152906001019060200180831161076f57829003601f168201915b5050505050610bd2565b604051819033907fd8138f8a3f377c5259ca548e70e4c2de94f129f5a11036a15b69513cba2b426a90600090a350505050565b6107d4848484610470565b6104fa3385858585610c22565b60606107ec826109ae565b50600082815260066020526040812080546108069061160b565b80601f01602080910402602001604051908101604052809291908181526020018280546108329061160b565b801561087f5780601f106108545761010080835404028352916020019161087f565b820191906000526020600020905b81548152906001019060200180831161086257829003601f168201915b50505050509050600061089d60408051602081019091526000815290565b905080516000036108af575092915050565b8151156108e15780826040516020016108c992919061166c565b60405160208183030381529060405292505050919050565b6108ea84610d4d565b949350505050565b6001600160a01b03918216600090815260056020908152604080832093909416825291909152205460ff1690565b610928610a84565b6001600160a01b03811661095257604051631e4fbdf760e01b815260006004820152602401610496565b61095b81610ab1565b50565b60006001600160e01b031982166380ac58cd60e01b148061098f57506001600160e01b03198216635b5e139f60e01b145b8061031257506301ffc9a760e01b6001600160e01b0319831614610312565b6000818152600260205260408120546001600160a01b03168061031257604051637e27328960e01b815260048101849052602401610496565b61051b8383836001610dc2565b6000828152600260205260408120546001600160a01b03168015801590610a2357506001600160a01b03851615155b15610a705760405162461bcd60e51b815260206004820152601f60248201527f4365727469666963617465206973206e6f6e2d7472616e7366657261626c65006044820152606401610496565b610a7b858585610ec8565b95945050505050565b6007546001600160a01b031633146105855760405163118cdaa760e01b8152336004820152602401610496565b600780546001600160a01b038381166001600160a01b0319831681179093556040519116919082907f8be0079c531659141344cd1fd0a4f28419497f9722a3daafe3b4186f6b6457e090600090a35050565b6001600160a01b038216610b3557604051630b61174360e31b81526001600160a01b0383166004820152602401610496565b6001600160a01b03838116600081815260056020908152604080832094871680845294825291829020805460ff191686151590811790915591519182527f17307eab39ab6107e8899845ad3d59bd9653f200f220920489ca2b5937696c31910160405180910390a3505050565b600082610baf8584610fc1565b14949350505050565b61046c82826040518060200160405280600081525061100e565b6000828152600660205260409020610bea82826116e1565b506040518281527ff8e1a15aba9398e019f0b49df1a4fde98ee17ae345cb5f6b5e2c27f5033e8ce79060200160405180910390a15050565b6001600160a01b0383163b15610d4657604051630a85bd0160e11b81526001600160a01b0384169063150b7a0290610c649088908890879087906004016117a1565b6020604051808303816000875af1925050508015610c9f575060408051601f3d908101601f19168201909252610c9c918101906117de565b60015b610d08573d808015610ccd576040519150601f19603f3d011682016040523d82523d6000602084013e610cd2565b606091505b508051600003610d0057604051633250574960e11b81526001600160a01b0385166004820152602401610496565b805160208201fd5b6001600160e01b03198116630a85bd0160e11b14610d4457604051633250574960e11b81526001600160a01b0385166004820152602401610496565b505b5050505050565b6060610d58826109ae565b506000610d7060408051602081019091526000815290565b90506000815111610d905760405180602001604052806000815250610dbb565b80610d9a84611026565b604051602001610dab92919061166c565b6040516020818303038152906040525b9392505050565b8080610dd657506001600160a01b03821615155b15610e98576000610de6846109ae565b90506001600160a01b03831615801590610e125750826001600160a01b0316816001600160a01b031614155b8015610e255750610e2381846108f2565b155b15610e4e5760405163a9fbf51f60e01b81526001600160a01b0384166004820152602401610496565b8115610e965783856001600160a01b0316826001600160a01b03167f8c5be1e5ebec7d5bd14f71427d1e84f3dd0314c0f7b2291e5b200ac8c7c3b92560405160405180910390a45b505b5050600090815260046020526040902080546001600160a01b0319166001600160a01b0392909216919091179055565b6000828152600260205260408120546001600160a01b0390811690831615610ef557610ef58184866110b9565b6001600160a01b03811615610f3357610f12600085600080610dc2565b6001600160a01b038116600090815260036020526040902080546000190190555b6001600160a01b03851615610f62576001600160a01b0385166000908152600360205260409020805460010190555b60008481526002602052604080822080546001600160a01b0319166001600160a01b0389811691821790925591518793918516917fddf252ad1be2c89b69c2b068fc378daa952ba7f163c4a11628f55a4df523b3ef91a4949350505050565b600081815b845181101561100657610ff282868381518110610fe557610fe56117fb565b602002602001015161111d565b915080610ffe81611645565b915050610fc6565b509392505050565b6110188383611149565b61051b336000858585610c22565b60606000611033836111ae565b600101905060008167ffffffffffffffff811115611053576110536114e6565b6040519080825280601f01601f19166020018201604052801561107d576020820181803683370190505b5090508181016020015b600019016f181899199a1a9b1b9c1cb0b131b232b360811b600a86061a8153600a850494508461108757509392505050565b6110c4838383611286565b61051b576001600160a01b0383166110f257604051637e27328960e01b815260048101829052602401610496565b60405163177e802f60e01b81526001600160a01b038316600482015260248101829052604401610496565b6000818310611139576000828152602084905260409020610dbb565b5060009182526020526040902090565b6001600160a01b03821661117357604051633250574960e11b815260006004820152602401610496565b6000611181838360006109f4565b90506001600160a01b0381161561051b576040516339e3563760e11b815260006004820152602401610496565b60008072184f03e93ff9f4daa797ed6e38ed64bf6a1f0160401b83106111ed5772184f03e93ff9f4daa797ed6e38ed64bf6a1f0160401b830492506040015b6d04ee2d6d415b85acef81000000008310611219576d04ee2d6d415b85acef8100000000830492506020015b662386f26fc10000831061123757662386f26fc10000830492506010015b6305f5e100831061124f576305f5e100830492506008015b612710831061126357612710830492506004015b60648310611275576064830492506002015b600a83106103125760010192915050565b60006001600160a01b038316158015906108ea5750826001600160a01b0316846001600160a01b031614806112c057506112c084846108f2565b806108ea5750506000908152600460205260409020546001600160a01b03908116911614919050565b6001600160e01b03198116811461095b57600080fd5b60006020828403121561131157600080fd5b8135610dbb816112e9565b60005b8381101561133757818101518382015260200161131f565b50506000910152565b6000815180845261135881602086016020860161131c565b601f01601f19169290920160200192915050565b602081526000610dbb6020830184611340565b60006020828403121561139157600080fd5b5035919050565b80356001600160a01b03811681146113af57600080fd5b919050565b600080604083850312156113c757600080fd5b6113d083611398565b946020939093013593505050565b6000806000606084860312156113f357600080fd5b6113fc84611398565b925061140a60208501611398565b9150604084013590509250925092565b60006020828403121561142c57600080fd5b610dbb82611398565b6000806040838503121561144857600080fd5b61145183611398565b91506020830135801515811461146657600080fd5b809150509250929050565b6000806020838503121561148457600080fd5b823567ffffffffffffffff8082111561149c57600080fd5b818501915085601f8301126114b057600080fd5b8135818111156114bf57600080fd5b8660208260051b85010111156114d457600080fd5b60209290920196919550909350505050565b634e487b7160e01b600052604160045260246000fd5b6000806000806080858703121561151257600080fd5b61151b85611398565b935061152960208601611398565b925060408501359150606085013567ffffffffffffffff8082111561154d57600080fd5b818701915087601f83011261156157600080fd5b813581811115611573576115736114e6565b604051601f8201601f19908116603f0116810190838211818310171561159b5761159b6114e6565b816040528281528a60208487010111156115b457600080fd5b82602086016020830137600060208483010152809550505050505092959194509250565b600080604083850312156115eb57600080fd5b6115f483611398565b915061160260208401611398565b90509250929050565b600181811c9082168061161f57607f821691505b60208210810361163f57634e487b7160e01b600052602260045260246000fd5b50919050565b60006001820161166557634e487b7160e01b600052601160045260246000fd5b5060010190565b6000835161167e81846020880161131c565b83519083019061169281836020880161131c565b01949350505050565b601f82111561051b57600081815260208120601f850160051c810160208610156116c25750805b601f850160051c820191505b81811015610d44578281556001016116ce565b815167ffffffffffffffff8111156116fb576116fb6114e6565b61170f81611709845461160b565b8461169b565b602080601f831160018114611744576000841561172c5750858301515b600019600386901b1c1916600185901b178555610d44565b600085815260208120601f198616915b8281101561177357888601518255948401946001909101908401611754565b50858210156117915787850151600019600388901b60f8161c191681555b5050505050600190811b01905550565b6001600160a01b03858116825284166020820152604081018390526080606082018190526000906117d490830184611340565b9695505050505050565b6000602082840312156117f057600080fd5b8151610dbb816112e9565b634e487b7160e01b600052603260045260246000fdfea2646970667358221220311cb8fbecc37254d08119c20df5b84f56925d528ca00d028b68752a5b3a6d9164736f6c63430008140033",
  "linkReferences": {},
  "deployedLinkReferences": {}
}