{
  "_format": "hh-sol-artifact-1",
  "contractName": "CourseFactory",
  "sourceName": "src/CourseFactory.sol",
  "abi": [
    {
      "inputs": [
        {
          "internalType": "address",
          "name": "_treasury",
          "type": "address"
        },
        {
          "internalType": "address",
          "name": "_owner",
          "type": "address"
        }
      ],
      "stateMutability": "nonpayable",
      "type": "constructor"
    },
    {
      "inputs": [],
      "name": "EmptyCourseName",
      "type": "error"
    },
    {
      "inputs": [],
      "name": "EmptyCourseSymbol",
      "type": "error"
    },
    {
      "inputs": [],
      "name": "InvalidFeePercentage",
      "type": "error"
    },
    {
      "inputs": [],
      "name": "InvalidTreasuryAddress",
      "type": "error"
    },
    {
      "inputs": [
        {
          "internalType": "address",
          "name": "owner",
          "type": "address"
        }
      ],
      "name": "OwnableInvalidOwner",
      "type": "error"
    },
    {
      "inputs": [
        {
          "internalType": "address",
          "name": "account",
          "type": "address"
        }
      ],
      "name": "OwnableUnauthorizedAccount",
      "type": "error"
    },
    {
      "inputs": [],
      "name": "ReentrancyGuardReentrantCall",
      "type": "error"
    },
    {
      "anonymous": false,
      "inputs": [
        {
          "indexed": true,
          "internalType": "address",
          "name": "courseContract",
          "type": "address"
        },
        {
          "indexed": true,
          "internalType": "address",
          "name": "creator",
          "type": "address"
        },
        {
          "indexed": false,
          "internalType": "string",
          "name": "name",
          "type": "string"
        },
        {
          "indexed": false,
          "internalType": "string",
          "name": "symbol",
          "type": "string"
        },
        {
          "indexed": false,
          "internalType": "uint256",
          "name": "price",
          "type": "uint256"
        },
        {
          "indexed": false,
          "internalType": "address",
          "name": "paymentToken",
          "type": "address"
        },
        {
          "indexed": false,
          "internalType": "string",
          "name": "baseURI",
          "type": "string"
        }
      ],
      "name": "CourseCreated",
      "type": "event"
    },
    {
      "anonymous": false,
      "inputs": [
        {
          "indexed": true,
          "internalType": "address",
          "name": "previousOwner",
          "type": "address"
        },
        {
          "indexed": true,
          "internalType": "address",
          "name": "newOwner",
          "type": "address"
        }
      ],
      "name": "OwnershipTransferred",
      "type": "event"
    },
    {
      "anonymous": false,
      "inputs": [
        {
          "indexed": true,
          "internalType": "address",
          "name": "oldTreasury",
          "type": "address"
        },
        {
          "indexed": true,
          "internalType": "address",
          "name": "newTreasury",
          "type": "address"
        }
      ],
      "name": "TreasuryAddressUpdated",
      "type": "event"
    },
    {
      "anonymous": false,
      "inputs": [
        {
          "indexed": false,
          "internalType": "uint256",
          "name": "oldFee",
          "type": "uint256"
        },
        {
          "indexed": false,
          "internalType": "uint256",
          "name": "newFee",
          "type": "uint256"
        }
      ],
      "name": "TreasuryFeeUpdated",
      "type": "event"
    },
    {
      "inputs": [],
      "name": "MAX_FEE",
      "outputs": [
        {
          "internalType": "uint256",
          "name": "",
          "type": "uint256"
        }
      ],
      "stateMutability": "view",
      "type": "function"
    },
    {
      "inputs": [],
      "name": "MIN_FEE",
      "outputs": [
        {
          "internalType": "uint256",
          "name": "",
          "type": "uint256"
        }
      ],
      "stateMutability": "view",
      "type": "function"
    },
    {
      "inputs": [
        {
          "internalType": "uint256",
          "name": "",
          "type": "uint256"
        }
      ],
      "name": "allCourses",
      "outputs": [
        {
          "internalType": "address",
          "name": "",
          "type": "address"
        }
      ],
      "stateMutability": "view",
      "type": "function"
    },
    {
      "inputs": [
        {
          "internalType": "string",
          "name": "name",
          "type": "string"
        },
        {
          "internalType": "string",
          "name": "symbol",
          "type": "string"
        },
        {
          "internalType": "uint256",
          "name": "price",
          "type": "uint256"
        },
        {
          "internalType": "address",
          "name": "paymentToken",
          "type": "address"
        },
        {
          "internalType": "string",
          "name": "baseURI",
          "type": "string"
        }
      ],
      "name": "createCourse",
      "outputs": [
        {
          "internalType": "address",
          "name": "courseAddress",
          "type": "address"
        }
      ],
      "stateMutability": "nonpayable",
      "type": "function"
    },
    {
      "inputs": [
        {
          "internalType": "address",
          "name": "",
          "type": "address"
        }
      ],
      "name": "creatorCourseCount",
      "outputs": [
        {
          "internalType": "uint256",
          "name": "",
          "type": "uint256"
        }
      ],
      "stateMutability": "view",
      "type": "function"
    },
    {
      "inputs": [
        {
          "internalType": "address",
          "name": "",
          "type": "address"
        },
        {
          "internalType": "uint256",
          "name": "",
          "type": "uint256"
        }
      ],
      "name": "creatorCourses",
      "outputs": [
        {
          "internalType": "address",
          "name": "",
          "type": "address"
        }
      ],
      "stateMutability": "view",
      "type": "function"
    },
    {
      "inputs": [],
      "name": "defaultTreasuryFee",
      "outputs": [
        {
          "internalType": "uint256",
          "name": "",
          "type": "uint256"
        }
      ],
      "stateMutability": "view",
      "type": "function"
    },
    {
      "inputs": [],
      "name": "getAllCourses",
      "outputs": [
        {
          "internalType": "address[]",
          "name": "",
          "type": "address[]"
        }
      ],
      "stateMutability": "view",
      "type": "function"
    },
    {
      "inputs": [
        {
          "internalType": "uint256",
          "name": "startIndex",
          "type": "uint256"
        },
        {
          "internalType": "uint256",
          "name": "endIndex",
          "type": "uint256"
        }
      ],
      "name": "getCoursesPaginated",
      "outputs": [
        {
          "internalType": "address[]",
          "name": "",
          "type": "address[]"
        }
      ],
      "stateMutability": "view",
      "type": "function"
    },
    {
      "inputs": [
        {
          "internalType": "address",
          "name": "creator",
          "type": "address"
        }
      ],
      "name": "getCreatorCourses",
      "outputs": [
        {
          "internalType": "address[]",
          "name": "",
          "type": "address[]"
        }
      ],
      "stateMutability": "view",
      "type": "function"
    },
    {
      "inputs": [
        {
          "internalType": "address",
          "name": "",
          "type": "address"
        }
      ],
      "name": "isValidCourse",
      "outputs": [
        {
          "internalType": "bool",
          "name": "",
          "type": "bool"
        }
      ],
      "stateMutability": "view",
      "type": "function"
    },
    {
      "inputs": [],
      "name": "owner",
      "outputs": [
        {
          "internalType": "address",
          "name": "",
          "type": "address"
        }
      ],
      "stateMutability": "view",
      "type": "function"
    },
    {
      "inputs": [],
      "name": "renounceOwnership",
      "outputs": [],
      "stateMutability": "nonpayable",
      "type": "function"
    },
    {
      "inputs": [],
      "name": "totalCoursesCreated",
      "outputs": [
        {
          "internalType": "uint256",
          "name": "",
          "type": "uint256"
        }
      ],
      "stateMutability": "view",
      "type": "function"
    },
    {
      "inputs": [
        {
          "internalType": "address",
          "name": "newOwner",
          "type": "address"
        }
      ],
      "name": "transferOwnership",
      "outputs": [],
      "stateMutability": "nonpayable",
      "type": "function"
    },
    {
      "inputs": [],
      "name": "treasury",
      "outputs": [
        {
          "internalType": "address",
          "name": "",
          "type": "address"
        }
      ],
      "stateMutability": "view",
      "type": "function"
    },
    {
      "inputs": [
        {
          "internalType": "address",
          "name": "newTreasury",
          "type": "address"
        }
      ],
      "name": "updateTreasuryAddress",
      "outputs": [],
      "stateMutability": "nonpayable",
      "type": "function"
    },
    {
      "inputs": [
        {
          "internalType": "uint256",
          "name": "newFee",
          "type": "uint256"
        }
      ],
      "name": "updateTreasuryFee",
      "outputs": [],
      "stateMutability": "nonpayable",
      "type": "function"
    }
  ],
  "bytecode": "0x60806040526003805534801561001457600080fd5b5060405161347738038061347783398101604081905261003391610129565b806001600160a01b03811661006257604051631e4fbdf760e01b81526000600482015260240160405180910390fd5b61006b816100bd565b50600180556001600160a01b0382166100975760405163cfe2ea6360e01b815260040160405180910390fd5b50600280546001600160a01b0319166001600160a01b039290921691909117905561015c565b600080546001600160a01b038381166001600160a01b0319831681178455604051919092169283917f8be0079c531659141344cd1fd0a4f28419497f9722a3daafe3b4186f6b6457e09190a35050565b80516001600160a01b038116811461012457600080fd5b919050565b6000806040838503121561013c57600080fd5b6101458361010d565b91506101536020840161010d565b90509250929050565b61330c8061016b6000396000f3fe60806040523480156200001157600080fd5b50600436106200012d5760003560e01c806376c7a3c711620000af578063aeeeab93116200007a578063aeeeab931462000275578063bc063e1a1462000298578063cb88dc7914620002a1578063e54e395d14620002b8578063f2fde38b14620002cf57600080fd5b806376c7a3c7146200022c578063841e456114620002355780638da5cb5b146200024c57806397232830146200025e57600080fd5b806325c1ad4f11620000fc57806325c1ad4f14620001b25780635b2e7ac914620001cb57806361d027b3146200020257806364bc34051462000216578063715018a6146200022057600080fd5b806304e48bd11462000132578063058447fe146200015457806312112caf146200016b5780631dc46c4d1462000182575b600080fd5b6200013c620002e6565b6040516200014b919062000962565b60405180910390f35b6200013c62000165366004620009b1565b6200034a565b6200013c6200017c366004620009f1565b62000493565b620001996200019336600462000a16565b6200050b565b6040516001600160a01b0390911681526020016200014b565b620001bc60045481565b6040519081526020016200014b565b620001f1620001dc366004620009f1565b60066020526000908152604090205460ff1681565b60405190151581526020016200014b565b60025462000199906001600160a01b031681565b620001bc60035481565b6200022a62000544565b005b620001bc600381565b6200022a62000246366004620009f1565b6200055c565b6000546001600160a01b031662000199565b6200022a6200026f36600462000a43565b620005e0565b620001bc62000286366004620009f1565b60086020526000908152604090205481565b620001bc600a81565b62000199620002b236600462000a43565b6200065e565b62000199620002c936600462000b08565b62000689565b6200022a620002e0366004620009f1565b62000866565b606060078054806020026020016040519081016040528092919081815260200182805480156200034057602002820191906000526020600020905b81546001600160a01b0316815260019091019060200180831162000321575b5050505050905090565b606081831080156200035e57506007548211155b620003a05760405162461bcd60e51b815260206004820152600d60248201526c496e76616c69642072616e676560981b60448201526064015b60405180910390fd5b6000620003ae848462000bcd565b905060008167ffffffffffffffff811115620003ce57620003ce62000a5d565b604051908082528060200260200182016040528015620003f8578160200160208202803683370190505b50905060005b828110156200048857600762000415828862000be3565b8154811062000428576200042862000bf9565b9060005260206000200160009054906101000a90046001600160a01b03168282815181106200045b576200045b62000bf9565b6001600160a01b0390921660209283029190910190910152806200047f8162000c0f565b915050620003fe565b509150505b92915050565b6001600160a01b038116600090815260056020908152604091829020805483518184028101840190945280845260609392830182828015620004ff57602002820191906000526020600020905b81546001600160a01b03168152600190910190602001808311620004e0575b50505050509050919050565b600560205281600052604060002081815481106200052857600080fd5b6000918252602090912001546001600160a01b03169150829050565b6200054e620008aa565b6200055a6000620008d9565b565b62000566620008aa565b6001600160a01b0381166200058e5760405163cfe2ea6360e01b815260040160405180910390fd5b600280546001600160a01b038381166001600160a01b0319831681179093556040519116919082907f430359a6d97ced2b6f93c77a91e7ce9dfd43252eb91e916adba170485cd8a6a490600090a35050565b620005ea620008aa565b6003811080620005fa5750600a81115b15620006195760405163390edff560e11b815260040160405180910390fd5b600380549082905560408051828152602081018490527fa3548295fa266701fb2455011980392d0693eeff50c36c961fd1e6a8a8403429910160405180910390a15050565b600781815481106200066f57600080fd5b6000918252602090912001546001600160a01b0316905081565b60006200069562000929565b8551600003620006b857604051635205087960e01b815260040160405180910390fd5b8451600003620006db576040516316f616bd60e31b815260040160405180910390fd5b600086868633600260009054906101000a90046001600160a01b031688600354896040516200070a9062000954565b6200071d98979695949392919062000c73565b604051809103906000f0801580156200073a573d6000803e3d6000fd5b503360008181526005602090815260408083208054600181810183559185528385200180546001600160a01b0388166001600160a01b0319918216811790925581865260068552838620805460ff1916841790556007805493840190557fa66cc928b5edb82af9bd49922954155ab7b0942694bea4ce44661d9a8736c688909201805490921617905592825260089052908120805492945084935090620007e18362000c0f565b909155505060048054906000620007f88362000c0f565b9190505550336001600160a01b0316826001600160a01b03167f98979981cfec37f39127fbd53bebd7eeba137ade3a76e66717c14793a86b586589898989896040516200084a95949392919062000cf1565b60405180910390a3506200085d60018055565b95945050505050565b62000870620008aa565b6001600160a01b0381166200089c57604051631e4fbdf760e01b81526000600482015260240162000397565b620008a781620008d9565b50565b6000546001600160a01b031633146200055a5760405163118cdaa760e01b815233600482015260240162000397565b600080546001600160a01b038381166001600160a01b0319831681178455604051919092169283917f8be0079c531659141344cd1fd0a4f28419497f9722a3daafe3b4186f6b6457e09190a35050565b6002600154036200094d57604051633ee5aeb560e01b815260040160405180910390fd5b6002600155565b6125848062000d5383390190565b6020808252825182820181905260009190848201906040850190845b81811015620009a55783516001600160a01b0316835292840192918401916001016200097e565b50909695505050505050565b60008060408385031215620009c557600080fd5b50508035926020909101359150565b80356001600160a01b0381168114620009ec57600080fd5b919050565b60006020828403121562000a0457600080fd5b62000a0f82620009d4565b9392505050565b6000806040838503121562000a2a57600080fd5b62000a3583620009d4565b946020939093013593505050565b60006020828403121562000a5657600080fd5b5035919050565b634e487b7160e01b600052604160045260246000fd5b600082601f83011262000a8557600080fd5b813567ffffffffffffffff8082111562000aa35762000aa362000a5d565b604051601f8301601f19908116603f0116810190828211818310171562000ace5762000ace62000a5d565b8160405283815286602085880101111562000ae857600080fd5b836020870160208301376000602085830101528094505050505092915050565b600080600080600060a0868803121562000b2157600080fd5b853567ffffffffffffffff8082111562000b3a57600080fd5b62000b4889838a0162000a73565b9650602088013591508082111562000b5f57600080fd5b62000b6d89838a0162000a73565b95506040880135945062000b8460608901620009d4565b9350608088013591508082111562000b9b57600080fd5b5062000baa8882890162000a73565b9150509295509295909350565b634e487b7160e01b600052601160045260246000fd5b818103818111156200048d576200048d62000bb7565b808201808211156200048d576200048d62000bb7565b634e487b7160e01b600052603260045260246000fd5b60006001820162000c245762000c2462000bb7565b5060010190565b6000815180845260005b8181101562000c535760208185018101518683018201520162000c35565b506000602082860101526020601f19601f83011685010191505092915050565b600061010080835262000c898184018c62000c2b565b9050828103602084015262000c9f818b62000c2b565b604084018a90526001600160a01b0389811660608601528881166080860152871660a085015260c0840186905283810360e0850152905062000ce2818562000c2b565b9b9a5050505050505050505050565b60a08152600062000d0660a083018862000c2b565b828103602084015262000d1a818862000c2b565b604084018790526001600160a01b03861660608501528381036080850152905062000d46818562000c2b565b9897505050505050505056fe610120604052600a805460ff19166001908117909155600e553480156200002557600080fd5b506040516200258438038062002584833981016040819052620000489162000224565b838888600062000059838262000390565b50600162000068828262000390565b5050506001600160a01b0381166200009a57604051631e4fbdf760e01b81526000600482015260240160405180910390fd5b620000a581620000f0565b5060016007556001600160a01b0380861660805284811660a052831660c05260e082905260088690554261010052600d620000e1828262000390565b5050505050505050506200045c565b600680546001600160a01b038381166001600160a01b0319831681179093556040519116919082907f8be0079c531659141344cd1fd0a4f28419497f9722a3daafe3b4186f6b6457e090600090a35050565b634e487b7160e01b600052604160045260246000fd5b600082601f8301126200016a57600080fd5b81516001600160401b038082111562000187576200018762000142565b604051601f8301601f19908116603f01168101908282118183101715620001b257620001b262000142565b81604052838152602092508683858801011115620001cf57600080fd5b600091505b83821015620001f35785820183015181830184015290820190620001d4565b600093810190920192909252949350505050565b80516001600160a01b03811681146200021f57600080fd5b919050565b600080600080600080600080610100898b0312156200024257600080fd5b88516001600160401b03808211156200025a57600080fd5b620002688c838d0162000158565b995060208b01519150808211156200027f57600080fd5b6200028d8c838d0162000158565b985060408b01519750620002a460608c0162000207565b9650620002b460808c0162000207565b9550620002c460a08c0162000207565b945060c08b0151935060e08b0151915080821115620002e257600080fd5b50620002f18b828c0162000158565b9150509295985092959890939650565b600181811c908216806200031657607f821691505b6020821081036200033757634e487b7160e01b600052602260045260246000fd5b50919050565b601f8211156200038b57600081815260208120601f850160051c81016020861015620003665750805b601f850160051c820191505b81811015620003875782815560010162000372565b5050505b505050565b81516001600160401b03811115620003ac57620003ac62000142565b620003c481620003bd845462000301565b846200033d565b602080601f831160018114620003fc5760008415620003e35750858301515b600019600386901b1c1916600185901b17855562000387565b600085815260208120601f198616915b828110156200042d578886015182559484019460019091019084016200040c565b50858210156200044c5787850151600019600388901b60f8161c191681555b5050505050600190811b01905550565b60805160a05160c05160e05161010051612088620004fc600039600061062f0152600081816105fb01528181610f6001526111a1015260008181610339015281816108b00152818161090e01528181610ad90152610f3801526000818161040b01528181610fb401526111ea01526000818161023a0152818161098301528181610ba701528181610cfc01528181610fee015261128601526120886000f3fe6080604052600436106101ee5760003560e01c8063715018a61161010d578063a22cb465116100a0578063cc32d1761161006f578063cc32d176146105e9578063cf09e0d01461061d578063e985e9c514610651578063ed6002f014610671578063f2fde38b1461068657600080fd5b8063a22cb4651461055c578063af6ddf5c1461057c578063b88d4fde146105a9578063c87b56dd146105c957600080fd5b80638da5cb5b116100dc5780638da5cb5b146104e357806394518fd81461050157806395d89b4114610531578063a035b1fe1461054657600080fd5b8063715018a614610490578063750b6b18146104a55780637ad55f7e146104bb5780638d6cc56d146104c357600080fd5b80633013ce291161018557806361d027b31161015457806361d027b3146103f95780636352211e1461042d5780636c0360eb1461044d57806370a082311461046257600080fd5b80633013ce291461032757806342842e0e1461035b5780634b82caec1461037b57806355f804b3146103d957600080fd5b8063095ea7b3116101c1578063095ea7b3146102b657806322f3e2d4146102d857806323b872dd146102f25780632ef4c6181461031257600080fd5b806301ffc9a7146101f357806302d05d3f1461022857806306fdde0314610274578063081812fc14610296575b600080fd5b3480156101ff57600080fd5b5061021361020e366004611a3e565b6106a6565b60405190151581526020015b60405180910390f35b34801561023457600080fd5b5061025c7f000000000000000000000000000000000000000000000000000000000000000081565b6040516001600160a01b03909116815260200161021f565b34801561028057600080fd5b506102896106f8565b60405161021f9190611ab2565b3480156102a257600080fd5b5061025c6102b1366004611ac5565b61078a565b3480156102c257600080fd5b506102d66102d1366004611afa565b6107b3565b005b3480156102e457600080fd5b50600a546102139060ff1681565b3480156102fe57600080fd5b506102d661030d366004611b24565b6107c2565b34801561031e57600080fd5b506102d6610852565b34801561033357600080fd5b5061025c7f000000000000000000000000000000000000000000000000000000000000000081565b34801561036757600080fd5b506102d6610376366004611b24565b610958565b34801561038757600080fd5b506103c2610396366004611b60565b6001600160a01b03166000908152600b6020908152604080832054600c9092529091205460ff90911691565b60408051921515835260208301919091520161021f565b3480156103e557600080fd5b506102d66103f4366004611c07565b610978565b34801561040557600080fd5b5061025c7f000000000000000000000000000000000000000000000000000000000000000081565b34801561043957600080fd5b5061025c610448366004611ac5565b610a07565b34801561045957600080fd5b50610289610a12565b34801561046e57600080fd5b5061048261047d366004611b60565b610a21565b60405190815260200161021f565b34801561049c57600080fd5b506102d6610a69565b3480156104b157600080fd5b5061048260095481565b6102d6610a7b565b3480156104cf57600080fd5b506102d66104de366004611ac5565b610b9c565b3480156104ef57600080fd5b506006546001600160a01b031661025c565b34801561050d57600080fd5b5061021361051c366004611b60565b600b6020526000908152604090205460ff1681565b34801561053d57600080fd5b50610289610c29565b34801561055257600080fd5b5061048260085481565b34801561056857600080fd5b506102d6610577366004611c50565b610c38565b34801561058857600080fd5b50610482610597366004611b60565b600c6020526000908152604090205481565b3480156105b557600080fd5b506102d66105c4366004611c8c565b610c43565b3480156105d557600080fd5b506102896105e4366004611ac5565b610c5b565b3480156105f557600080fd5b506104827f000000000000000000000000000000000000000000000000000000000000000081565b34801561062957600080fd5b506104827f000000000000000000000000000000000000000000000000000000000000000081565b34801561065d57600080fd5b5061021361066c366004611d08565b610cc3565b34801561067d57600080fd5b506102d6610cf1565b34801561069257600080fd5b506102d66106a1366004611b60565b610d86565b60006001600160e01b031982166380ac58cd60e01b14806106d757506001600160e01b03198216635b5e139f60e01b145b806106f257506301ffc9a760e01b6001600160e01b03198316145b92915050565b60606000805461070790611d3b565b80601f016020809104026020016040519081016040528092919081815260200182805461073390611d3b565b80156107805780601f1061075557610100808354040283529160200191610780565b820191906000526020600020905b81548152906001019060200180831161076357829003601f168201915b5050505050905090565b600061079582610dc4565b506000828152600460205260409020546001600160a01b03166106f2565b6107be828233610dfd565b5050565b6001600160a01b0382166107f157604051633250574960e11b8152600060048201526024015b60405180910390fd5b60006107fe838333610e0a565b9050836001600160a01b0316816001600160a01b03161461084c576040516364283d7b60e01b81526001600160a01b03808616600483015260248201849052821660448201526064016107e8565b50505050565b61085a610e9a565b600a5460ff1661087d5760405163eabd807760e01b815260040160405180910390fd5b336000908152600b602052604090205460ff16156108ae57604051636d6d97d960e01b815260040160405180910390fd5b7f00000000000000000000000000000000000000000000000000000000000000006001600160a01b03166108f557604051633320a41160e11b815260040160405180910390fd5b6008541561094357600854610938906001600160a01b037f0000000000000000000000000000000000000000000000000000000000000000169033903090610ec4565b610943600854610f2b565b61094c33611052565b6109566001600755565b565b61097383838360405180602001604052806000815250610c43565b505050565b336001600160a01b037f000000000000000000000000000000000000000000000000000000000000000016146109c05760405162461bcd60e51b81526004016107e890611d75565b600d6109cc8282611de1565b507f1c306e70c05992619e2128ad1ef88df75f36c9476282e59f51401b2abaa42e4e816040516109fc9190611ab2565b60405180910390a150565b60006106f282610dc4565b6060600d805461070790611d3b565b60006001600160a01b038216610a4d576040516322718ad960e21b8152600060048201526024016107e8565b506001600160a01b031660009081526003602052604090205490565b610a7161110e565b610956600061113b565b610a83610e9a565b600a5460ff16610aa65760405163eabd807760e01b815260040160405180910390fd5b336000908152600b602052604090205460ff1615610ad757604051636d6d97d960e01b815260040160405180910390fd5b7f00000000000000000000000000000000000000000000000000000000000000006001600160a01b031615610b1f57604051633320a41160e11b815260040160405180910390fd5b6008541561094357600854341015610b4a5760405163cd1c886760e01b815260040160405180910390fd5b600854341115610b915760085433906108fc90610b679034611eb7565b6040518115909202916000818181858888f19350505050158015610b8f573d6000803e3d6000fd5b505b61094360085461118d565b336001600160a01b037f00000000000000000000000000000000000000000000000000000000000000001614610be45760405162461bcd60e51b81526004016107e890611d75565b600880549082905560408051828152602081018490527f945c1c4e99aa89f648fbfe3df471b916f719e16d960fcec0737d4d56bd696838910160405180910390a15050565b60606001805461070790611d3b565b6107be338383611356565b610c4e8484846107c2565b61084c33858585856113f5565b6060610c6682610dc4565b506000600d8054610c7690611d3b565b905011610c9257604051806020016040528060008152506106f2565b600d610c9d83611520565b604051602001610cae929190611eca565b60405160208183030381529060405292915050565b6001600160a01b03918216600090815260056020908152604080832093909416825291909152205460ff1690565b336001600160a01b037f00000000000000000000000000000000000000000000000000000000000000001614610d395760405162461bcd60e51b81526004016107e890611d75565b600a805460ff8082161560ff1990921682179092556040519116151581527f14e63446c164b6a4783993471437d8c2365391074a5477bed169c33e2266d9e09060200160405180910390a1565b610d8e61110e565b6001600160a01b038116610db857604051631e4fbdf760e01b8152600060048201526024016107e8565b610dc18161113b565b50565b6000818152600260205260408120546001600160a01b0316806106f257604051637e27328960e01b8152600481018490526024016107e8565b6109738383836001611629565b6000828152600260205260408120546001600160a01b03168015801590610e3957506001600160a01b03851615155b15610e865760405162461bcd60e51b815260206004820152601f60248201527f4365727469666963617465206973206e6f6e2d7472616e7366657261626c650060448201526064016107e8565b610e9185858561172f565b95945050505050565b600260075403610ebd57604051633ee5aeb560e01b815260040160405180910390fd5b6002600755565b6040516001600160a01b03848116602483015283811660448301526064820183905261084c9186918216906323b872dd906084015b604051602081830303815290604052915060e01b6020820180516001600160e01b038381831617835250505050611828565b80600003610f365750565b7f000000000000000000000000000000000000000000000000000000000000000060006064610f857f000000000000000000000000000000000000000000000000000000000000000085611f61565b610f8f9190611f8e565b90506000610f9d8285611eb7565b90508115610fd957610fd96001600160a01b0384167f000000000000000000000000000000000000000000000000000000000000000084611899565b8015611013576110136001600160a01b0384167f000000000000000000000000000000000000000000000000000000000000000083611899565b60408051838152602081018390527f1dc1ff445d92fc99ebf61a473f0f7dda3c6c8f9bd1cedfd74bafb2ff69395b33910160405180910390a150505050565b6001600160a01b0381166000908152600b60205260408120805460ff19166001179055600980549161108383611fa2565b9091555050600e80546000918261109983611fa2565b909155506001600160a01b0383166000908152600c6020526040902081905590506110c482826118ca565b80826001600160a01b03167f6d522962915ea428962ac7255828e1a0f6a4ea9b368921c8b5cfa0c9de76233160085460405161110291815260200190565b60405180910390a35050565b6006546001600160a01b031633146109565760405163118cdaa760e01b81523360048201526024016107e8565b600680546001600160a01b038381166001600160a01b0319831681179093556040519116919082907f8be0079c531659141344cd1fd0a4f28419497f9722a3daafe3b4186f6b6457e090600090a35050565b806000036111985750565b600060646111c67f000000000000000000000000000000000000000000000000000000000000000084611f61565b6111d09190611f8e565b905060006111de8284611eb7565b9050811561127c5760007f00000000000000000000000000000000000000000000000000000000000000006001600160a01b03168360405160006040518083038185875af1925050503d8060008114611253576040519150601f19603f3d011682016040523d82523d6000602084013e611258565b606091505b505090508061127a576040516312171d8360e31b815260040160405180910390fd5b505b80156113185760007f00000000000000000000000000000000000000000000000000000000000000006001600160a01b03168260405160006040518083038185875af1925050503d80600081146112ef576040519150601f19603f3d011682016040523d82523d6000602084013e6112f4565b606091505b5050905080611316576040516312171d8360e31b815260040160405180910390fd5b505b60408051838152602081018390527f1dc1ff445d92fc99ebf61a473f0f7dda3c6c8f9bd1cedfd74bafb2ff69395b33910160405180910390a1505050565b6001600160a01b03821661138857604051630b61174360e31b81526001600160a01b03831660048201526024016107e8565b6001600160a01b03838116600081815260056020908152604080832094871680845294825291829020805460ff191686151590811790915591519182527f17307eab39ab6107e8899845ad3d59bd9653f200f220920489ca2b5937696c31910160405180910390a3505050565b6001600160a01b0383163b1561151957604051630a85bd0160e11b81526001600160a01b0384169063150b7a0290611437908890889087908790600401611fbb565b6020604051808303816000875af1925050508015611472575060408051601f3d908101601f1916820190925261146f91810190611ff8565b60015b6114db573d8080156114a0576040519150601f19603f3d011682016040523d82523d6000602084013e6114a5565b606091505b5080516000036114d357604051633250574960e11b81526001600160a01b03851660048201526024016107e8565b805160208201fd5b6001600160e01b03198116630a85bd0160e11b1461151757604051633250574960e11b81526001600160a01b03851660048201526024016107e8565b505b5050505050565b6060816000036115475750506040805180820190915260018152600360fc1b602082015290565b8160005b8115611571578061155b81611fa2565b915061156a9050600a83611f8e565b915061154b565b60008167ffffffffffffffff81111561158c5761158c611b7b565b6040519080825280601f01601f1916602001820160405280156115b6576020820181803683370190505b5090505b8415611621576115cb600183611eb7565b91506115d8600a86612015565b6115e3906030612029565b60f81b8183815181106115f8576115f861203c565b60200101906001600160f81b031916908160001a90535061161a600a86611f8e565b94506115ba565b949350505050565b808061163d57506001600160a01b03821615155b156116ff57600061164d84610dc4565b90506001600160a01b038316158015906116795750826001600160a01b0316816001600160a01b031614155b801561168c575061168a8184610cc3565b155b156116b55760405163a9fbf51f60e01b81526001600160a01b03841660048201526024016107e8565b81156116fd5783856001600160a01b0316826001600160a01b03167f8c5be1e5ebec7d5bd14f71427d1e84f3dd0314c0f7b2291e5b200ac8c7c3b92560405160405180910390a45b505b5050600090815260046020526040902080546001600160a01b0319166001600160a01b0392909216919091179055565b6000828152600260205260408120546001600160a01b039081169083161561175c5761175c8184866118e4565b6001600160a01b0381161561179a57611779600085600080611629565b6001600160a01b038116600090815260036020526040902080546000190190555b6001600160a01b038516156117c9576001600160a01b0385166000908152600360205260409020805460010190555b60008481526002602052604080822080546001600160a01b0319166001600160a01b0389811691821790925591518793918516917fddf252ad1be2c89b69c2b068fc378daa952ba7f163c4a11628f55a4df523b3ef91a4949350505050565b600080602060008451602086016000885af18061184b576040513d6000823e3d81fd5b50506000513d91508115611863578060011415611870565b6001600160a01b0384163b155b1561084c57604051635274afe760e01b81526001600160a01b03851660048201526024016107e8565b6040516001600160a01b0383811660248301526044820183905261097391859182169063a9059cbb90606401610ef9565b6107be828260405180602001604052806000815250611948565b6118ef838383611960565b610973576001600160a01b03831661191d57604051637e27328960e01b8152600481018290526024016107e8565b60405163177e802f60e01b81526001600160a01b0383166004820152602481018290526044016107e8565b61195283836119c3565b6109733360008585856113f5565b60006001600160a01b038316158015906116215750826001600160a01b0316846001600160a01b0316148061199a575061199a8484610cc3565b806116215750506000908152600460205260409020546001600160a01b03908116911614919050565b6001600160a01b0382166119ed57604051633250574960e11b8152600060048201526024016107e8565b60006119fb83836000610e0a565b90506001600160a01b03811615610973576040516339e3563760e11b8152600060048201526024016107e8565b6001600160e01b031981168114610dc157600080fd5b600060208284031215611a5057600080fd5b8135611a5b81611a28565b9392505050565b60005b83811015611a7d578181015183820152602001611a65565b50506000910152565b60008151808452611a9e816020860160208601611a62565b601f01601f19169290920160200192915050565b602081526000611a5b6020830184611a86565b600060208284031215611ad757600080fd5b5035919050565b80356001600160a01b0381168114611af557600080fd5b919050565b60008060408385031215611b0d57600080fd5b611b1683611ade565b946020939093013593505050565b600080600060608486031215611b3957600080fd5b611b4284611ade565b9250611b5060208501611ade565b9150604084013590509250925092565b600060208284031215611b7257600080fd5b611a5b82611ade565b634e487b7160e01b600052604160045260246000fd5b600067ffffffffffffffff80841115611bac57611bac611b7b565b604051601f8501601f19908116603f01168101908282118183101715611bd457611bd4611b7b565b81604052809350858152868686011115611bed57600080fd5b858560208301376000602087830101525050509392505050565b600060208284031215611c1957600080fd5b813567ffffffffffffffff811115611c3057600080fd5b8201601f81018413611c4157600080fd5b61162184823560208401611b91565b60008060408385031215611c6357600080fd5b611c6c83611ade565b915060208301358015158114611c8157600080fd5b809150509250929050565b60008060008060808587031215611ca257600080fd5b611cab85611ade565b9350611cb960208601611ade565b925060408501359150606085013567ffffffffffffffff811115611cdc57600080fd5b8501601f81018713611ced57600080fd5b611cfc87823560208401611b91565b91505092959194509250565b60008060408385031215611d1b57600080fd5b611d2483611ade565b9150611d3260208401611ade565b90509250929050565b600181811c90821680611d4f57607f821691505b602082108103611d6f57634e487b7160e01b600052602260045260246000fd5b50919050565b6020808252600c908201526b155b985d5d1a1bdc9a5e995960a21b604082015260600190565b601f82111561097357600081815260208120601f850160051c81016020861015611dc25750805b601f850160051c820191505b8181101561151757828155600101611dce565b815167ffffffffffffffff811115611dfb57611dfb611b7b565b611e0f81611e098454611d3b565b84611d9b565b602080601f831160018114611e445760008415611e2c5750858301515b600019600386901b1c1916600185901b178555611517565b600085815260208120601f198616915b82811015611e7357888601518255948401946001909101908401611e54565b5085821015611e915787850151600019600388901b60f8161c191681555b5050505050600190811b01905550565b634e487b7160e01b600052601160045260246000fd5b818103818111156106f2576106f2611ea1565b6000808454611ed881611d3b565b60018281168015611ef05760018114611f0557611f34565b60ff1984168752821515830287019450611f34565b8860005260208060002060005b85811015611f2b5781548a820152908401908201611f12565b50505082870194505b505050508351611f48818360208801611a62565b64173539b7b760d91b9101908152600501949350505050565b80820281158282048414176106f2576106f2611ea1565b634e487b7160e01b600052601260045260246000fd5b600082611f9d57611f9d611f78565b500490565b600060018201611fb457611fb4611ea1565b5060010190565b6001600160a01b0385811682528416602082015260408101839052608060608201819052600090611fee90830184611a86565b9695505050505050565b60006020828403121561200a57600080fd5b8151611a5b81611a28565b60008261202457612024611f78565b500690565b808201808211156106f2576106f2611ea1565b634e487b7160e01b600052603260045260246000fdfea26469706673582212202a15d0a3536963450acb016ad796e88caeb30adee12ddd496c72da4b9ddab1a864736f6c63430008140033a2646970667358221220626db408657c596a413f247350f30ee85865eed776a25da339472ac7f231e5f364736f6c63430008140033",
  "linkReferences": {},
  "deployedLinkReferences": {}
}