{
  "_format": "hh-sol-artifact-1",
  "contractName": "NexaCourse",
  "sourceName": "src/NexaCourse.sol",
  "abi": [
    {
      "inputs": [],
      "stateMutability": "nonpayable",
      "type": "constructor"
    },
    {
      "inputs": [],
      "name": "AlreadyEnrolled",
      "type": "error"
    },
    {
      "inputs": [],
      "name": "CourseInactive",
      "type": "error"
    },
    {
      "inputs": [
        {
          "internalType": "address",
          "name": "sender",
          "type": "address"
        },
        {
          "internalType": "uint256",
          "name": "tokenId",
          "type": "uint256"
        },
        {
          "internalType": "address",
          "name": "owner",
          "type": "address"
        }
      ],
      "name": "ERC721IncorrectOwner",
      "type": "error"
    },
    {
      "inputs": [
        {
          "internalType": "address",
          "name": "operator",
          "type": "address"
        },
        {
          "internalType": "uint256",
          "name": "tokenId",
          "type": "uint256"
        }
      ],
      "name": "ERC721InsufficientApproval",
      "type": "error"
    },
    {
      "inputs": [
        {
          "internalType": "address",
          "name": "approver",
          "type": "address"
        }
      ],
      "name": "ERC721InvalidApprover",
      "type": "error"
    },
    {
      "inputs": [
        {
          "internalType": "address",
          "name": "operator",
          "type": "address"
        }
      ],
      "name": "ERC721InvalidOperator",
      "type": "error"
    },
    {
      "inputs": [
        {
          "internalType": "address",
          "name": "owner",
          "type": "address"
        }
      ],
      "name": "ERC721InvalidOwner",
      "type": "error"
    },
    {
      "inputs": [
        {
          "internalType": "address",
          "name": "receiver",
          "type": "address"
        }
      ],
      "name": "ERC721InvalidReceiver",
      "type": "error"
    },
    {
      "inputs": [
        {
          "internalType": "address",
          "name": "sender",
          "type": "address"
        }
      ],
      "name": "ERC721InvalidSender",
      "type": "error"
    },
    {
      "inputs": [
        {
          "internalType": "uint256",
          "name": "tokenId",
          "type": "uint256"
        }
      ],
      "name": "ERC721NonexistentToken",
      "type": "error"
    },
    {
      "inputs": [],
      "name": "InsufficientPayment",
      "type": "error"
    },
    {
      "inputs": [],
      "name": "InvalidInitialization",
      "type": "error"
    },
    {
      "inputs": [],
      "name": "NotInitializing",
      "type": "error"
    },
    {
      "inputs": [
        {
          "internalType": "address",
          "name": "owner",
          "type": "address"
        }
      ],
      "name": "OwnableInvalidOwner",
      "type": "error"
    },
    {
      "inputs": [
        {
          "internalType": "address",
          "name": "account",
          "type": "address"
        }
      ],
      "name": "OwnableUnauthorizedAccount",
      "type": "error"
    },
    {
      "inputs": [],
      "name": "ReentrancyGuardReentrantCall",
      "type": "error"
    },
    {
      "inputs": [
        {
          "internalType": "address",
          "name": "token",
          "type": "address"
        }
      ],
      "name": "SafeERC20FailedOperation",
      "type": "error"
    },
    {
      "inputs": [],
      "name": "TransferFailed",
      "type": "error"
    },
    {
      "inputs": [],
      "name": "Unauthorized",
      "type": "error"
    },
    {
      "inputs": [],
      "name": "WrongPaymentMethod",
      "type": "error"
    },
    {
      "anonymous": false,
      "inputs": [
        {
          "indexed": true,
          "internalType": "address",
          "name": "owner",
          "type": "address"
        },
        {
          "indexed": true,
          "internalType": "address",
          "name": "approved",
          "type": "address"
        },
        {
          "indexed": true,
          "internalType": "uint256",
          "name": "tokenId",
          "type": "uint256"
        }
      ],
      "name": "Approval",
      "type": "event"
    },
    {
      "anonymous": false,
      "inputs": [
        {
          "indexed": true,
          "internalType": "address",
          "name": "owner",
          "type": "address"
        },
        {
          "indexed": true,
          "internalType": "address",
          "name": "operator",
          "type": "address"
        },
        {
          "indexed": false,
          "internalType": "bool",
          "name": "approved",
          "type": "bool"
        }
      ],
      "name": "ApprovalForAll",
      "type": "event"
    },
    {
      "anonymous": false,
      "inputs": [
        {
          "indexed": false,
          "internalType": "bool",
          "name": "isActive",
          "type": "bool"
        }
      ],
      "name": "CourseStatusChanged",
      "type": "event"
    },
    {
      "anonymous": false,
      "inputs": [
        {
          "indexed": false,
          "internalType": "uint64",
          "name": "version",
          "type": "uint64"
        }
      ],
      "name": "Initialized",
      "type": "event"
    },
    {
      "anonymous": false,
      "inputs": [
        {
          "indexed": false,
          "internalType": "string",
          "name": "newBaseURI",
          "type": "string"
        }
      ],
      "name": "MetadataUpdated",
      "type": "event"
    },
    {
      "anonymous": false,
      "inputs": [
        {
          "indexed": true,
          "internalType": "address",
          "name": "previousOwner",
          "type": "address"
        },
        {
          "indexed": true,
          "internalType": "address",
          "name": "newOwner",
          "type": "address"
        }
      ],
      "name": "OwnershipTransferred",
      "type": "event"
    },
    {
      "anonymous": false,
      "inputs": [
        {
          "indexed": false,
          "internalType": "uint256",
          "name": "treasuryAmount",
          "type": "uint256"
        },
        {
          "indexed": false,
          "internalType": "uint256",
          "name": "creatorAmount",
          "type": "uint256"
        }
      ],
      "name": "PaymentDistributed",
      "type": "event"
    },
    {
      "anonymous": false,
      "inputs": [
        {
          "indexed": false,
          "internalType": "address",
          "name": "oldToken",
          "type": "address"
        },
        {
          "indexed": false,
          "internalType": "address",
          "name": "newToken",
          "type": "address"
        }
      ],
      "name": "PaymentTokenUpdated",
      "type": "event"
    },
    {
      "anonymous": false,
      "inputs": [
        {
          "indexed": false,
          "internalType": "uint256",
          "name": "oldPrice",
          "type": "uint256"
        },
        {
          "indexed": false,
          "internalType": "uint256",
          "name": "newPrice",
          "type": "uint256"
        }
      ],
      "name": "PriceUpdated",
      "type": "event"
    },
    {
      "anonymous": false,
      "inputs": [
        {
          "indexed": true,
          "internalType": "address",
          "name": "student",
          "type": "address"
        },
        {
          "indexed": true,
          "internalType": "uint256",
          "name": "tokenId",
          "type": "uint256"
        },
        {
          "indexed": false,
          "internalType": "uint256",
          "name": "pricePaid",
          "type": "uint256"
        }
      ],
      "name": "StudentEnrolled",
      "type": "event"
    },
    {
      "anonymous": false,
      "inputs": [
        {
          "indexed": true,
          "internalType": "address",
          "name": "from",
          "type": "address"
        },
        {
          "indexed": true,
          "internalType": "address",
          "name": "to",
          "type": "address"
        },
        {
          "indexed": true,
          "internalType": "uint256",
          "name": "tokenId",
          "type": "uint256"
        }
      ],
      "name": "Transfer",
      "type": "event"
    },
    {
      "inputs": [
        {
          "internalType": "address",
          "name": "to",
          "type": "address"
        },
        {
          "internalType": "uint256",
          "name": "tokenId",
          "type": "uint256"
        }
      ],
      "name": "approve",
      "outputs": [],
      "stateMutability": "nonpayable",
      "type": "function"
    },
    {
      "inputs": [
        {
          "internalType": "address",
          "name": "owner",
          "type": "address"
        }
      ],
      "name": "balanceOf",
      "outputs": [
        {
          "internalType": "uint256",
          "name": "",
          "type": "uint256"
        }
      ],
      "stateMutability": "view",
      "type": "function"
    },
    {
      "inputs": [],
      "name": "createdAt",
      "outputs": [
        {
          "internalType": "uint256",
          "name": "",
          "type": "uint256"
        }
      ],
      "stateMutability": "view",
      "type": "function"
    },
    {
      "inputs": [],
      "name": "creator",
      "outputs": [
        {
          "internalType": "address",
          "name": "",
          "type": "address"
        }
      ],
      "stateMutability": "view",
      "type": "function"
    },
    {
      "inputs": [],
      "name": "enrollWithETH",
      "outputs": [],
      "stateMutability": "payable",
      "type": "function"
    },
    {
      "inputs": [],
      "name": "enrollWithToken",
      "outputs": [],
      "stateMutability": "nonpayable",
      "type": "function"
    },
    {
      "inputs": [],
      "name": "enrolledCount",
      "outputs": [
        {
          "internalType": "uint256",
          "name": "",
          "type": "uint256"
        }
      ],
      "stateMutability": "view",
      "type": "function"
    },
    {
      "inputs": [
        {
          "internalType": "uint256",
          "name": "tokenId",
          "type": "uint256"
        }
      ],
      "name": "getApproved",
      "outputs": [
        {
          "internalType": "address",
          "name": "",
          "type": "address"
        }
      ],
      "stateMutability": "view",
      "type": "function"
    },
    {
      "inputs": [
        {
          "internalType": "address",
          "name": "student",
          "type": "address"
        }
      ],
      "name": "getStudentInfo",
      "outputs": [
        {
          "internalType": "bool",
          "name": "enrolled",
          "type": "bool"
        },
        {
          "internalType": "uint256",
          "name": "tokenId",
          "type": "uint256"
        }
      ],
      "stateMutability": "view",
      "type": "function"
    },
    {
      "inputs": [
        {
          "internalType": "string",
          "name": "courseName",
          "type": "string"
        },
        {
          "internalType": "string",
          "name": "courseSymbol",
          "type": "string"
        },
        {
          "internalType": "uint256",
          "name": "_price",
          "type": "uint256"
        },
        {
          "internalType": "address",
          "name": "_creator",
          "type": "address"
        },
        {
          "internalType": "address",
          "name": "_treasury",
          "type": "address"
        },
        {
          "internalType": "address",
          "name": "_paymentToken",
          "type": "address"
        },
        {
          "internalType": "uint256",
          "name": "_treasuryFee",
          "type": "uint256"
        },
        {
          "internalType": "string",
          "name": "_baseURI",
          "type": "string"
        }
      ],
      "name": "initialize",
      "outputs": [],
      "stateMutability": "nonpayable",
      "type": "function"
    },
    {
      "inputs": [],
      "name": "isActive",
      "outputs": [
        {
          "internalType": "bool",
          "name": "",
          "type": "bool"
        }
      ],
      "stateMutability": "view",
      "type": "function"
    },
    {
      "inputs": [
        {
          "internalType": "address",
          "name": "owner",
          "type": "address"
        },
        {
          "internalType": "address",
          "name": "operator",
          "type": "address"
        }
      ],
      "name": "isApprovedForAll",
      "outputs": [
        {
          "internalType": "bool",
          "name": "",
          "type": "bool"
        }
      ],
      "stateMutability": "view",
      "type": "function"
    },
    {
      "inputs": [
        {
          "internalType": "address",
          "name": "",
          "type": "address"
        }
      ],
      "name": "isEnrolled",
      "outputs": [
        {
          "internalType": "bool",
          "name": "",
          "type": "bool"
        }
      ],
      "stateMutability": "view",
      "type": "function"
    },
    {
      "inputs": [],
      "name": "name",
      "outputs": [
        {
          "internalType": "string",
          "name": "",
          "type": "string"
        }
      ],
      "stateMutability": "view",
      "type": "function"
    },
    {
      "inputs": [],
      "name": "owner",
      "outputs": [
        {
          "internalType": "address",
          "name": "",
          "type": "address"
        }
      ],
      "stateMutability": "view",
      "type": "function"
    },
    {
      "inputs": [
        {
          "internalType": "uint256",
          "name": "tokenId",
          "type": "uint256"
        }
      ],
      "name": "ownerOf",
      "outputs": [
        {
          "internalType": "address",
          "name": "",
          "type": "address"
        }
      ],
      "stateMutability": "view",
      "type": "function"
    },
    {
      "inputs": [],
      "name": "paymentToken",
      "outputs": [
        {
          "internalType": "address",
          "name": "",
          "type": "address"
        }
      ],
      "stateMutability": "view",
      "type": "function"
    },
    {
      "inputs": [],
      "name": "price",
      "outputs": [
        {
          "internalType": "uint256",
          "name": "",
          "type": "uint256"
        }
      ],
      "stateMutability": "view",
      "type": "function"
    },
    {
      "inputs": [],
      "name": "renounceOwnership",
      "outputs": [],
      "stateMutability": "nonpayable",
      "type": "function"
    },
    {
      "inputs": [
        {
          "internalType": "address",
          "name": "from",
          "type": "address"
        },
        {
          "internalType": "address",
          "name": "to",
          "type": "address"
        },
        {
          "internalType": "uint256",
          "name": "tokenId",
          "type": "uint256"
        }
      ],
      "name": "safeTransferFrom",
      "outputs": [],
      "stateMutability": "nonpayable",
      "type": "function"
    },
    {
      "inputs": [
        {
          "internalType": "address",
          "name": "from",
          "type": "address"
        },
        {
          "internalType": "address",
          "name": "to",
          "type": "address"
        },
        {
          "internalType": "uint256",
          "name": "tokenId",
          "type": "uint256"
        },
        {
          "internalType": "bytes",
          "name": "data",
          "type": "bytes"
        }
      ],
      "name": "safeTransferFrom",
      "outputs": [],
      "stateMutability": "nonpayable",
      "type": "function"
    },
    {
      "inputs": [
        {
          "internalType": "address",
          "name": "operator",
          "type": "address"
        },
        {
          "internalType": "bool",
          "name": "approved",
          "type": "bool"
        }
      ],
      "name": "setApprovalForAll",
      "outputs": [],
      "stateMutability": "nonpayable",
      "type": "function"
    },
    {
      "inputs": [
        {
          "internalType": "string",
          "name": "newBaseURI",
          "type": "string"
        }
      ],
      "name": "setBaseURI",
      "outputs": [],
      "stateMutability": "nonpayable",
      "type": "function"
    },
    {
      "inputs": [
        {
          "internalType": "address",
          "name": "",
          "type": "address"
        }
      ],
      "name": "studentTokenId",
      "outputs": [
        {
          "internalType": "uint256",
          "name": "",
          "type": "uint256"
        }
      ],
      "stateMutability": "view",
      "type": "function"
    },
    {
      "inputs": [
        {
          "internalType": "bytes4",
          "name": "interfaceId",
          "type": "bytes4"
        }
      ],
      "name": "supportsInterface",
      "outputs": [
        {
          "internalType": "bool",
          "name": "",
          "type": "bool"
        }
      ],
      "stateMutability": "view",
      "type": "function"
    },
    {
      "inputs": [],
      "name": "symbol",
      "outputs": [
        {
          "internalType": "string",
          "name": "",
          "type": "string"
        }
      ],
      "stateMutability": "view",
      "type": "function"
    },
    {
      "inputs": [],
      "name": "toggleCourseStatus",
      "outputs": [],
      "stateMutability": "nonpayable",
      "type": "function"
    },
    {
      "inputs": [
        {
          "internalType": "uint256",
          "name": "tokenId",
          "type": "uint256"
        }
      ],
      "name": "tokenURI",
      "outputs": [
        {
          "internalType": "string",
          "name": "",
          "type": "string"
        }
      ],
      "stateMutability": "view",
      "type": "function"
    },
    {
      "inputs": [
        {
          "internalType": "address",
          "name": "from",
          "type": "address"
        },
        {
          "internalType": "address",
          "name": "to",
          "type": "address"
        },
        {
          "internalType": "uint256",
          "name": "tokenId",
          "type": "uint256"
        }
      ],
      "name": "transferFrom",
      "outputs": [],
      "stateMutability": "nonpayable",
      "type": "function"
    },
    {
      "inputs": [
        {
          "internalType": "address",
          "name": "newOwner",
          "type": "address"
        }
      ],
      "name": "transferOwnership",
      "outputs": [],
      "stateMutability": "nonpayable",
      "type": "function"
    },
    {
      "inputs": [],
      "name": "treasury",
      "outputs": [
        {
          "internalType": "address",
          "name": "",
          "type": "address"
        }
      ],
      "stateMutability": "view",
      "type": "function"
    },
    {
      "inputs": [],
      "name": "treasuryFee",
      "outputs": [
        {
          "internalType": "uint256",
          "name": "",
          "type": "uint256"
        }
      ],
      "stateMutability": "view",
      "type": "function"
    },
    {
      "inputs": [
        {
          "internalType": "address",
          "name": "newPaymentToken",
          "type": "address"
        }
      ],
      "name": "updatePaymentToken",
      "outputs": [],
      "stateMutability": "nonpayable",
      "type": "function"
    },
    {
      "inputs": [
        {
          "internalType": "uint256",
          "name": "newPrice",
          "type": "uint256"
        }
      ],
      "name": "updatePrice",
      "outputs": [],
      "stateMutability": "nonpayable",
      "type": "function"
    }
  ],
  "bytecode": "0x608060405234801561001057600080fd5b5061001961001e565b6100d0565b7ff0c57e16840df040f15088dc2f81fe391c3923bec73e23a9662efc9c229c6a00805468010000000000000000900460ff161561006e5760405163f92ee8a960e01b815260040160405180910390fd5b80546001600160401b03908116146100cd5780546001600160401b0319166001600160401b0390811782556040519081527fc7f505b2f371ae2175ee4913f4499e1f2633a7b5936321eed1cdaeb6115181d29060200160405180910390a15b50565b61242280620000e06000396000f3fe6080604052600436106101f95760003560e01c8063715018a61161010d578063a22cb465116100a0578063cc32d1761161006f578063cc32d17614610607578063cf09e0d01461061d578063e985e9c514610633578063ed6002f014610653578063f2fde38b1461066857600080fd5b8063a22cb4651461057a578063af6ddf5c1461059a578063b88d4fde146105c7578063c87b56dd146105e757600080fd5b80638da5cb5b116100dc5780638da5cb5b146104e257806394518fd81461051f57806395d89b411461054f578063a035b1fe1461056457600080fd5b8063715018a61461048f578063750b6b18146104a45780637ad55f7e146104ba5780638d6cc56d146104c257600080fd5b80633013ce291161019057806355f804b31161015f57806355f804b3146103e157806361d027b3146104015780636352211e146104215780636e5e88381461044157806370a082311461046157600080fd5b80633013ce291461032357806342842e0e146103435780634b82caec146103635780634ccf1b34146103c157600080fd5b8063095ea7b3116101cc578063095ea7b3146102b257806322f3e2d4146102d457806323b872dd146102ee5780632ef4c6181461030e57600080fd5b806301ffc9a7146101fe57806302d05d3f1461023357806306fdde0314610270578063081812fc14610292575b600080fd5b34801561020a57600080fd5b5061021e610219366004611db8565b610688565b60405190151581526020015b60405180910390f35b34801561023f57600080fd5b506002546102589061010090046001600160a01b031681565b6040516001600160a01b03909116815260200161022a565b34801561027c57600080fd5b506102856106da565b60405161022a9190611e25565b34801561029e57600080fd5b506102586102ad366004611e38565b61077e565b3480156102be57600080fd5b506102d26102cd366004611e6d565b610793565b005b3480156102e057600080fd5b5060025461021e9060ff1681565b3480156102fa57600080fd5b506102d2610309366004611e97565b6107a2565b34801561031a57600080fd5b506102d2610832565b34801561032f57600080fd5b50600454610258906001600160a01b031681565b34801561034f57600080fd5b506102d261035e366004611e97565b61091d565b34801561036f57600080fd5b506103aa61037e366004611ed3565b6001600160a01b031660009081526007602090815260408083205460089092529091205460ff90911691565b60408051921515835260208301919091520161022a565b3480156103cd57600080fd5b506102d26103dc366004611ed3565b61093d565b3480156103ed57600080fd5b506102d26103fc366004611f9a565b6109d7565b34801561040d57600080fd5b50600354610258906001600160a01b031681565b34801561042d57600080fd5b5061025861043c366004611e38565b610a56565b34801561044d57600080fd5b506102d261045c366004611fcf565b610a61565b34801561046d57600080fd5b5061048161047c366004611ed3565b610bf4565b60405190815260200161022a565b34801561049b57600080fd5b506102d2610c50565b3480156104b057600080fd5b5061048160015481565b6102d2610c62565b3480156104ce57600080fd5b506102d26104dd366004611e38565b610d65565b3480156104ee57600080fd5b507f9016d09d72d40fdae2fd8ceac6b6234c7706214fd39c1cd1e609a0528c199300546001600160a01b0316610258565b34801561052b57600080fd5b5061021e61053a366004611ed3565b60076020526000908152604090205460ff1681565b34801561055b57600080fd5b50610285610ddb565b34801561057057600080fd5b5061048160005481565b34801561058657600080fd5b506102d261059536600461209d565b610e1a565b3480156105a657600080fd5b506104816105b5366004611ed3565b60086020526000908152604090205481565b3480156105d357600080fd5b506102d26105e23660046120d9565b610e25565b3480156105f357600080fd5b50610285610602366004611e38565b610e3d565b34801561061357600080fd5b5061048160055481565b34801561062957600080fd5b5061048160065481565b34801561063f57600080fd5b5061021e61064e366004612155565b610eb2565b34801561065f57600080fd5b506102d2610eff565b34801561067457600080fd5b506102d2610683366004611ed3565b610f84565b60006001600160e01b031982166380ac58cd60e01b14806106b957506001600160e01b03198216635b5e139f60e01b145b806106d457506301ffc9a760e01b6001600160e01b03198316145b92915050565b6000805160206123cd83398151915280546060919081906106fa90612188565b80601f016020809104026020016040519081016040528092919081815260200182805461072690612188565b80156107735780601f1061074857610100808354040283529160200191610773565b820191906000526020600020905b81548152906001019060200180831161075657829003601f168201915b505050505091505090565b600061078982610fc2565b506106d482610ffa565b61079e828233611034565b5050565b6001600160a01b0382166107d157604051633250574960e11b8152600060048201526024015b60405180910390fd5b60006107de838333611041565b9050836001600160a01b0316816001600160a01b03161461082c576040516364283d7b60e01b81526001600160a01b03808616600483015260248201849052821660448201526064016107c8565b50505050565b61083a61114b565b60025460ff1661085d5760405163eabd807760e01b815260040160405180910390fd5b3360009081526007602052604090205460ff161561088e57604051636d6d97d960e01b815260040160405180910390fd5b6004546001600160a01b03166108b757604051633320a41160e11b815260040160405180910390fd5b600054156108e9576000546004546108de916001600160a01b039091169033903090611195565b6108e96000546111fc565b6108f2336112c8565b61091b60017f9b779b17422d0df92223018b32b4d1fa46e071723d6817e2486d003becc55f0055565b565b61093883838360405180602001604052806000815250610e25565b505050565b60025461010090046001600160a01b0316336001600160a01b031614610975576040516282b42960e81b815260040160405180910390fd5b600480546001600160a01b038381166001600160a01b031983168117909355604080519190921680825260208201939093527f5efdfedf5aef119c431263f0656093045dffdf44b3d8f1b0f158dc295c3a0f8e91015b60405180910390a15050565b60025461010090046001600160a01b0316336001600160a01b031614610a0f576040516282b42960e81b815260040160405180910390fd5b6009610a1b8282612208565b507f1c306e70c05992619e2128ad1ef88df75f36c9476282e59f51401b2abaa42e4e81604051610a4b9190611e25565b60405180910390a150565b60006106d482610fc2565b6000610a6b6113ab565b805490915060ff600160401b820416159067ffffffffffffffff16600081158015610a935750825b905060008267ffffffffffffffff166001148015610ab05750303b155b905081158015610abe575080155b15610adc5760405163f92ee8a960e01b815260040160405180910390fd5b845467ffffffffffffffff191660011785558315610b0657845460ff60401b1916600160401b1785555b610b108d8d6113d4565b610b198a6113e6565b610b216113f7565b600280546001600160a01b03808d1661010002610100600160a81b031990921691909117909155600380548b83166001600160a01b03199182161790915560048054928b1692909116919091179055600587905560008b9055426006556009610b8a8782612208565b506001600a8190556002805460ff191690911790558315610be557845460ff60401b19168555604051600181527fc7f505b2f371ae2175ee4913f4499e1f2633a7b5936321eed1cdaeb6115181d29060200160405180910390a15b50505050505050505050505050565b60006000805160206123cd8339815191526001600160a01b038316610c2f576040516322718ad960e21b8152600060048201526024016107c8565b6001600160a01b039092166000908152600390920160205250604090205490565b610c58611407565b61091b6000611462565b610c6a61114b565b60025460ff16610c8d5760405163eabd807760e01b815260040160405180910390fd5b3360009081526007602052604090205460ff1615610cbe57604051636d6d97d960e01b815260040160405180910390fd5b6004546001600160a01b031615610ce857604051633320a41160e11b815260040160405180910390fd5b600054156108e957600054341015610d135760405163cd1c886760e01b815260040160405180910390fd5b600054341115610d5a5760005433906108fc90610d3090346122de565b6040518115909202916000818181858888f19350505050158015610d58573d6000803e3d6000fd5b505b6108e96000546114d3565b60025461010090046001600160a01b0316336001600160a01b031614610d9d576040516282b42960e81b815260040160405180910390fd5b600080549082905560408051828152602081018490527f945c1c4e99aa89f648fbfe3df471b916f719e16d960fcec0737d4d56bd69683891016109cb565b7f80bb2b638cc20bc4d0a60d66940f3ab4a00c1d7b313497ca82fb0b4ab007930180546060916000805160206123cd833981519152916106fa90612188565b61079e338383611688565b610e308484846107a2565b61082c3385858585611739565b6060610e4882610fc2565b506000610e6060408051602081019091526000815290565b90506000815111610e805760405180602001604052806000815250610eab565b80610e8a84611864565b604051602001610e9b9291906122f1565b6040516020818303038152906040525b9392505050565b6001600160a01b0391821660009081527f80bb2b638cc20bc4d0a60d66940f3ab4a00c1d7b313497ca82fb0b4ab00793056020908152604080832093909416825291909152205460ff1690565b60025461010090046001600160a01b0316336001600160a01b031614610f37576040516282b42960e81b815260040160405180910390fd5b6002805460ff8082161560ff1990921682179092556040519116151581527f14e63446c164b6a4783993471437d8c2365391074a5477bed169c33e2266d9e09060200160405180910390a1565b610f8c611407565b6001600160a01b038116610fb657604051631e4fbdf760e01b8152600060048201526024016107c8565b610fbf81611462565b50565b600080610fce836118f7565b90506001600160a01b0381166106d457604051637e27328960e01b8152600481018490526024016107c8565b60009081527f80bb2b638cc20bc4d0a60d66940f3ab4a00c1d7b313497ca82fb0b4ab007930460205260409020546001600160a01b031690565b6109388383836001611931565b60006000805160206123cd8339815191528161105c856118f7565b90506001600160a01b0384161561107857611078818587611a47565b6001600160a01b038116156110b857611095600086600080611931565b6001600160a01b0381166000908152600383016020526040902080546000190190555b6001600160a01b038616156110e9576001600160a01b03861660009081526003830160205260409020805460010190555b600085815260028301602052604080822080546001600160a01b0319166001600160a01b038a811691821790925591518893918516917fddf252ad1be2c89b69c2b068fc378daa952ba7f163c4a11628f55a4df523b3ef91a495945050505050565b7f9b779b17422d0df92223018b32b4d1fa46e071723d6817e2486d003becc55f0080546001190161118f57604051633ee5aeb560e01b815260040160405180910390fd5b60029055565b6040516001600160a01b03848116602483015283811660448301526064820183905261082c9186918216906323b872dd906084015b604051602081830303815290604052915060e01b6020820180516001600160e01b038381831617835250505050611aab565b806000036112075750565b6004546005546001600160a01b03909116906000906127109061122a9085612320565b6112349190612337565b9050600061124282856122de565b9050811561126457600354611264906001600160a01b03858116911684611b1c565b801561128957600254611289906001600160a01b038581169161010090041683611b1c565b60408051838152602081018390527f1dc1ff445d92fc99ebf61a473f0f7dda3c6c8f9bd1cedfd74bafb2ff69395b33910160405180910390a150505050565b6001600160a01b0381166000908152600760205260408120805460ff191660019081179091558054916112fa83612359565b9091555050600a80546000918261131083612359565b909155506001600160a01b0383166000908152600860205260409020819055905061133b8282611b4d565b80826001600160a01b03167f6d522962915ea428962ac7255828e1a0f6a4ea9b368921c8b5cfa0c9de76233160005460405161137991815260200190565b60405180910390a35050565b60017f9b779b17422d0df92223018b32b4d1fa46e071723d6817e2486d003becc55f0055565b6000807ff0c57e16840df040f15088dc2f81fe391c3923bec73e23a9662efc9c229c6a006106d4565b6113dc611b67565b61079e8282611b8c565b6113ee611b67565b610fbf81611bbd565b6113ff611b67565b61091b611bc5565b336114397f9016d09d72d40fdae2fd8ceac6b6234c7706214fd39c1cd1e609a0528c199300546001600160a01b031690565b6001600160a01b03161461091b5760405163118cdaa760e01b81523360048201526024016107c8565b7f9016d09d72d40fdae2fd8ceac6b6234c7706214fd39c1cd1e609a0528c19930080546001600160a01b031981166001600160a01b03848116918217845560405192169182907f8be0079c531659141344cd1fd0a4f28419497f9722a3daafe3b4186f6b6457e090600090a3505050565b806000036114de5750565b6000612710600554836114f19190612320565b6114fb9190612337565b9050600061150982846122de565b905081156115a8576003546040516000916001600160a01b03169084908381818185875af1925050503d806000811461155e576040519150601f19603f3d011682016040523d82523d6000602084013e611563565b606091505b50509050806115a65760405162461bcd60e51b815260206004820152600f60248201526e151c985b9cd9995c8819985a5b1959608a1b60448201526064016107c8565b505b801561164a5760025460405160009161010090046001600160a01b03169083908381818185875af1925050503d8060008114611600576040519150601f19603f3d011682016040523d82523d6000602084013e611605565b606091505b50509050806116485760405162461bcd60e51b815260206004820152600f60248201526e151c985b9cd9995c8819985a5b1959608a1b60448201526064016107c8565b505b60408051838152602081018390527f1dc1ff445d92fc99ebf61a473f0f7dda3c6c8f9bd1cedfd74bafb2ff69395b33910160405180910390a1505050565b6000805160206123cd8339815191526001600160a01b0383166116c957604051630b61174360e31b81526001600160a01b03841660048201526024016107c8565b6001600160a01b038481166000818152600584016020908152604080832094881680845294825291829020805460ff191687151590811790915591519182527f17307eab39ab6107e8899845ad3d59bd9653f200f220920489ca2b5937696c31910160405180910390a350505050565b6001600160a01b0383163b1561185d57604051630a85bd0160e11b81526001600160a01b0384169063150b7a029061177b908890889087908790600401612372565b6020604051808303816000875af19250505080156117b6575060408051601f3d908101601f191682019092526117b3918101906123af565b60015b61181f573d8080156117e4576040519150601f19603f3d011682016040523d82523d6000602084013e6117e9565b606091505b50805160000361181757604051633250574960e11b81526001600160a01b03851660048201526024016107c8565b805160208201fd5b6001600160e01b03198116630a85bd0160e11b1461185b57604051633250574960e11b81526001600160a01b03851660048201526024016107c8565b505b5050505050565b6060600061187183611bcd565b600101905060008167ffffffffffffffff81111561189157611891611eee565b6040519080825280601f01601f1916602001820160405280156118bb576020820181803683370190505b5090508181016020015b600019016f181899199a1a9b1b9c1cb0b131b232b360811b600a86061a8153600a85049450846118c557509392505050565b60009081527f80bb2b638cc20bc4d0a60d66940f3ab4a00c1d7b313497ca82fb0b4ab007930260205260409020546001600160a01b031690565b6000805160206123cd833981519152818061195457506001600160a01b03831615155b15611a1657600061196485610fc2565b90506001600160a01b038416158015906119905750836001600160a01b0316816001600160a01b031614155b80156119a357506119a18185610eb2565b155b156119cc5760405163a9fbf51f60e01b81526001600160a01b03851660048201526024016107c8565b8215611a145784866001600160a01b0316826001600160a01b03167f8c5be1e5ebec7d5bd14f71427d1e84f3dd0314c0f7b2291e5b200ac8c7c3b92560405160405180910390a45b505b600093845260040160205250506040902080546001600160a01b0319166001600160a01b0392909216919091179055565b611a52838383611ca5565b610938576001600160a01b038316611a8057604051637e27328960e01b8152600481018290526024016107c8565b60405163177e802f60e01b81526001600160a01b0383166004820152602481018290526044016107c8565b600080602060008451602086016000885af180611ace576040513d6000823e3d81fd5b50506000513d91508115611ae6578060011415611af3565b6001600160a01b0384163b155b1561082c57604051635274afe760e01b81526001600160a01b03851660048201526024016107c8565b6040516001600160a01b0383811660248301526044820183905261093891859182169063a9059cbb906064016111ca565b61079e828260405180602001604052806000815250611d0b565b611b6f611d23565b61091b57604051631afcd79f60e31b815260040160405180910390fd5b611b94611b67565b6000805160206123cd83398151915280611bae8482612208565b506001810161082c8382612208565b610f8c611b67565b611385611b67565b60008072184f03e93ff9f4daa797ed6e38ed64bf6a1f0160401b8310611c0c5772184f03e93ff9f4daa797ed6e38ed64bf6a1f0160401b830492506040015b6d04ee2d6d415b85acef81000000008310611c38576d04ee2d6d415b85acef8100000000830492506020015b662386f26fc100008310611c5657662386f26fc10000830492506010015b6305f5e1008310611c6e576305f5e100830492506008015b6127108310611c8257612710830492506004015b60648310611c94576064830492506002015b600a83106106d45760010192915050565b60006001600160a01b03831615801590611d035750826001600160a01b0316846001600160a01b03161480611cdf5750611cdf8484610eb2565b80611d035750826001600160a01b0316611cf883610ffa565b6001600160a01b0316145b949350505050565b611d158383611d3d565b610938336000858585611739565b6000611d2d6113ab565b54600160401b900460ff16919050565b6001600160a01b038216611d6757604051633250574960e11b8152600060048201526024016107c8565b6000611d7583836000611041565b90506001600160a01b03811615610938576040516339e3563760e11b8152600060048201526024016107c8565b6001600160e01b031981168114610fbf57600080fd5b600060208284031215611dca57600080fd5b8135610eab81611da2565b60005b83811015611df0578181015183820152602001611dd8565b50506000910152565b60008151808452611e11816020860160208601611dd5565b601f01601f19169290920160200192915050565b602081526000610eab6020830184611df9565b600060208284031215611e4a57600080fd5b5035919050565b80356001600160a01b0381168114611e6857600080fd5b919050565b60008060408385031215611e8057600080fd5b611e8983611e51565b946020939093013593505050565b600080600060608486031215611eac57600080fd5b611eb584611e51565b9250611ec360208501611e51565b9150604084013590509250925092565b600060208284031215611ee557600080fd5b610eab82611e51565b634e487b7160e01b600052604160045260246000fd5b600067ffffffffffffffff80841115611f1f57611f1f611eee565b604051601f8501601f19908116603f01168101908282118183101715611f4757611f47611eee565b81604052809350858152868686011115611f6057600080fd5b858560208301376000602087830101525050509392505050565b600082601f830112611f8b57600080fd5b610eab83833560208501611f04565b600060208284031215611fac57600080fd5b813567ffffffffffffffff811115611fc357600080fd5b611d0384828501611f7a565b600080600080600080600080610100898b031215611fec57600080fd5b883567ffffffffffffffff8082111561200457600080fd5b6120108c838d01611f7a565b995060208b013591508082111561202657600080fd5b6120328c838d01611f7a565b985060408b0135975061204760608c01611e51565b965061205560808c01611e51565b955061206360a08c01611e51565b945060c08b0135935060e08b013591508082111561208057600080fd5b5061208d8b828c01611f7a565b9150509295985092959890939650565b600080604083850312156120b057600080fd5b6120b983611e51565b9150602083013580151581146120ce57600080fd5b809150509250929050565b600080600080608085870312156120ef57600080fd5b6120f885611e51565b935061210660208601611e51565b925060408501359150606085013567ffffffffffffffff81111561212957600080fd5b8501601f8101871361213a57600080fd5b61214987823560208401611f04565b91505092959194509250565b6000806040838503121561216857600080fd5b61217183611e51565b915061217f60208401611e51565b90509250929050565b600181811c9082168061219c57607f821691505b6020821081036121bc57634e487b7160e01b600052602260045260246000fd5b50919050565b601f82111561093857600081815260208120601f850160051c810160208610156121e95750805b601f850160051c820191505b8181101561185b578281556001016121f5565b815167ffffffffffffffff81111561222257612222611eee565b612236816122308454612188565b846121c2565b602080601f83116001811461226b57600084156122535750858301515b600019600386901b1c1916600185901b17855561185b565b600085815260208120601f198616915b8281101561229a5788860151825594840194600190910190840161227b565b50858210156122b85787850151600019600388901b60f8161c191681555b5050505050600190811b01905550565b634e487b7160e01b600052601160045260246000fd5b818103818111156106d4576106d46122c8565b60008351612303818460208801611dd5565b835190830190612317818360208801611dd5565b01949350505050565b80820281158282048414176106d4576106d46122c8565b60008261235457634e487b7160e01b600052601260045260246000fd5b500490565b60006001820161236b5761236b6122c8565b5060010190565b6001600160a01b03858116825284166020820152604081018390526080606082018190526000906123a590830184611df9565b9695505050505050565b6000602082840312156123c157600080fd5b8151610eab81611da256fe80bb2b638cc20bc4d0a60d66940f3ab4a00c1d7b313497ca82fb0b4ab0079300a264697066735822122053b61a04186e3925bb444444a6f4f0ad8893b6b469b1302c3393705af1bd48b964736f6c63430008140033",
  "linkReferences": {},
  "deployedLinkReferences": {}
}