{
  "_format": "hh-sol-artifact-1",
  "contractName": "ISBTRegistry",
  "sourceName": "src/ISBTRegistry.sol",
  "abi": [
    {
      "inputs": [
        {
          "internalType": "address",
          "name": "initialOwner",
          "type": "address"
        }
      ],
      "stateMutability": "nonpayable",
      "type": "constructor"
    },
    {
      "inputs": [
        {
          "internalType": "address",
          "name": "owner",
          "type": "address"
        }
      ],
      "name": "OwnableInvalidOwner",
      "type": "error"
    },
    {
      "inputs": [
        {
          "internalType": "address",
          "name": "account",
          "type": "address"
        }
      ],
      "name": "OwnableUnauthorizedAccount",
      "type": "error"
    },
    {
      "anonymous": false,
      "inputs": [
        {
          "indexed": true,
          "internalType": "address",
          "name": "walletAddress",
          "type": "address"
        },
        {
          "indexed": false,
          "internalType": "string",
          "name": "name",
          "type": "string"
        },
        {
          "indexed": false,
          "internalType": "enum ISBTRegistry.EntityType",
          "name": "entityType",
          "type": "uint8"
        }
      ],
      "name": "EntityRegistered",
      "type": "event"
    },
    {
      "anonymous": false,
      "inputs": [
        {
          "indexed": true,
          "internalType": "address",
          "name": "walletAddress",
          "type": "address"
        }
      ],
      "name": "EntityRemoved",
      "type": "event"
    },
    {
      "anonymous": false,
      "inputs": [
        {
          "indexed": true,
          "internalType": "address",
          "name": "previousOwner",
          "type": "address"
        },
        {
          "indexed": true,
          "internalType": "address",
          "name": "newOwner",
          "type": "address"
        }
      ],
      "name": "OwnershipTransferred",
      "type": "event"
    },
    {
      "inputs": [
        {
          "internalType": "address",
          "name": "",
          "type": "address"
        }
      ],
      "name": "entities",
      "outputs": [
        {
          "internalType": "string",
          "name": "name",
          "type": "string"
        },
        {
          "internalType": "string",
          "name": "primaryUrl",
          "type": "string"
        },
        {
          "internalType": "string",
          "name": "contactEmail",
          "type": "string"
        },
        {
          "internalType": "enum ISBTRegistry.EntityType",
          "name": "entityType",
          "type": "uint8"
        },
        {
          "internalType": "address",
          "name": "walletAddress",
          "type": "address"
        },
        {
          "internalType": "bool",
          "name": "isRegistered",
          "type": "bool"
        },
        {
          "internalType": "uint256",
          "name": "registrationDate",
          "type": "uint256"
        }
      ],
      "stateMutability": "view",
      "type": "function"
    },
    {
      "inputs": [
        {
          "internalType": "address",
          "name": "_wallet",
          "type": "address"
        }
      ],
      "name": "getEntityDetails",
      "outputs": [
        {
          "components": [
            {
              "internalType": "string",
              "name": "name",
              "type": "string"
            },
            {
              "internalType": "string",
              "name": "primaryUrl",
              "type": "string"
            },
            {
              "internalType": "string",
              "name": "contactEmail",
              "type": "string"
            },
            {
              "internalType": "enum ISBTRegistry.EntityType",
              "name": "entityType",
              "type": "uint8"
            },
            {
              "internalType": "address",
              "name": "walletAddress",
              "type": "address"
            },
            {
              "internalType": "bool",
              "name": "isRegistered",
              "type": "bool"
            },
            {
              "internalType": "uint256",
              "name": "registrationDate",
              "type": "uint256"
            }
          ],
          "internalType": "struct ISBTRegistry.Entity",
          "name": "",
          "type": "tuple"
        }
      ],
      "stateMutability": "view",
      "type": "function"
    },
    {
      "inputs": [
        {
          "internalType": "address",
          "name": "_wallet",
          "type": "address"
        }
      ],
      "name": "isVerifiedEntity",
      "outputs": [
        {
          "internalType": "bool",
          "name": "",
          "type": "bool"
        }
      ],
      "stateMutability": "view",
      "type": "function"
    },
    {
      "inputs": [],
      "name": "owner",
      "outputs": [
        {
          "internalType": "address",
          "name": "",
          "type": "address"
        }
      ],
      "stateMutability": "view",
      "type": "function"
    },
    {
      "inputs": [
        {
          "internalType": "address",
          "name": "_walletAddress",
          "type": "address"
        },
        {
          "internalType": "string",
          "name": "_name",
          "type": "string"
        },
        {
          "internalType": "string",
          "name": "_primaryUrl",
          "type": "string"
        },
        {
          "internalType": "string",
          "name": "_email",
          "type": "string"
        },
        {
          "internalType": "enum ISBTRegistry.EntityType",
          "name": "_entityType",
          "type": "uint8"
        }
      ],
      "name": "registerEntity",
      "outputs": [],
      "stateMutability": "nonpayable",
      "type": "function"
    },
    {
      "inputs": [
        {
          "internalType": "address",
          "name": "_walletAddress",
          "type": "address"
        }
      ],
      "name": "removeEntity",
      "outputs": [],
      "stateMutability": "nonpayable",
      "type": "function"
    },
    {
      "inputs": [],
      "name": "renounceOwnership",
      "outputs": [],
      "stateMutability": "nonpayable",
      "type": "function"
    },
    {
      "inputs": [
        {
          "internalType": "address",
          "name": "newOwner",
          "type": "address"
        }
      ],
      "name": "transferOwnership",
      "outputs": [],
      "stateMutability": "nonpayable",
      "type": "function"
    }
  ],
  "bytecode": "0x608060405234801561001057600080fd5b506040516110f83803806110f883398101604081905261002f916100be565b806001600160a01b03811661005e57604051631e4fbdf760e01b81526000600482015260240160405180910390fd5b6100678161006e565b50506100ee565b600080546001600160a01b038381166001600160a01b0319831681178455604051919092169283917f8be0079c531659141344cd1fd0a4f28419497f9722a3daafe3b4186f6b6457e09190a35050565b6000602082840312156100d057600080fd5b81516001600160a01b03811681146100e757600080fd5b9392505050565b610ffb806100fd6000396000f3fe608060405234801561001057600080fd5b50600436106100885760003560e01c80638da5cb5b1161005b5780638da5cb5b1461012c578063b8b8dc8814610147578063dd1829961461015a578063f2fde38b1461016d57600080fd5b80631d8ee48a1461008d5780632be837ec146100bc578063455f1f36146100dc578063715018a614610122575b600080fd5b6100a061009b366004610b6a565b610180565b6040516100b39796959493929190610c0a565b60405180910390f35b6100cf6100ca366004610b6a565b610364565b6040516100b39190610c7a565b6101126100ea366004610b6a565b6001600160a01b0316600090815260016020526040902060030154600160a81b900460ff1690565b60405190151581526020016100b3565b61012a61061f565b005b6000546040516001600160a01b0390911681526020016100b3565b61012a610155366004610d64565b610633565b61012a610168366004610b6a565b6108f5565b61012a61017b366004610b6a565b6109f7565b60016020526000908152604090208054819061019b90610e26565b80601f01602080910402602001604051908101604052809291908181526020018280546101c790610e26565b80156102145780601f106101e957610100808354040283529160200191610214565b820191906000526020600020905b8154815290600101906020018083116101f757829003601f168201915b50505050509080600101805461022990610e26565b80601f016020809104026020016040519081016040528092919081815260200182805461025590610e26565b80156102a25780601f10610277576101008083540402835291602001916102a2565b820191906000526020600020905b81548152906001019060200180831161028557829003601f168201915b5050505050908060020180546102b790610e26565b80601f01602080910402602001604051908101604052809291908181526020018280546102e390610e26565b80156103305780601f1061030557610100808354040283529160200191610330565b820191906000526020600020905b81548152906001019060200180831161031357829003601f168201915b5050506003840154600490940154929360ff808216946001600160a01b036101008404169450600160a81b90920416915087565b61036c610ab2565b6001600160a01b038216600090815260016020526040902060030154600160a81b900460ff166103db5760405162461bcd60e51b8152602060048201526015602482015274115b9d1a5d1e481b9bdd081c9959da5cdd195c9959605a1b60448201526064015b60405180910390fd5b6001600160a01b03821660009081526001602052604090819020815160e0810190925280548290829061040d90610e26565b80601f016020809104026020016040519081016040528092919081815260200182805461043990610e26565b80156104865780601f1061045b57610100808354040283529160200191610486565b820191906000526020600020905b81548152906001019060200180831161046957829003601f168201915b5050505050815260200160018201805461049f90610e26565b80601f01602080910402602001604051908101604052809291908181526020018280546104cb90610e26565b80156105185780601f106104ed57610100808354040283529160200191610518565b820191906000526020600020905b8154815290600101906020018083116104fb57829003601f168201915b5050505050815260200160028201805461053190610e26565b80601f016020809104026020016040519081016040528092919081815260200182805461055d90610e26565b80156105aa5780601f1061057f576101008083540402835291602001916105aa565b820191906000526020600020905b81548152906001019060200180831161058d57829003601f168201915b5050509183525050600382015460209091019060ff1660048111156105d1576105d1610bd2565b60048111156105e2576105e2610bd2565b8152600382015461010081046001600160a01b03166020830152600160a81b900460ff161515604082015260049091015460609091015292915050565b610627610a35565b6106316000610a62565b565b61063b610a35565b6001600160a01b03881661068a5760405162461bcd60e51b8152602060048201526016602482015275496e76616c69642077616c6c6574206164647265737360501b60448201526064016103d2565b6001600160a01b038816600090815260016020526040902060030154600160a81b900460ff16156106fd5760405162461bcd60e51b815260206004820152601960248201527f456e7469747920616c726561647920726567697374657265640000000000000060448201526064016103d2565b6040518060e0016040528088888080601f016020809104026020016040519081016040528093929190818152602001838380828437600092019190915250505090825250604080516020601f890181900481028201810190925287815291810191908890889081908401838280828437600092019190915250505090825250604080516020601f8701819004810282018101909252858152918101919086908690819084018382808284376000920191909152505050908252506020018260048111156107cc576107cc610bd2565b81526001600160a01b038a166020808301829052600160408085018290524260609095019490945260009283529052208151819061080a9082610ec5565b506020820151600182019061081f9082610ec5565b50604082015160028201906108349082610ec5565b50606082015160038201805460ff1916600183600481111561085857610858610bd2565b0217905550608082015160038201805460a08501511515600160a81b0260ff60a81b196001600160a01b039485166101000216610100600160b01b03199092169190911717905560c090920151600490910155604051908916907f67ad3baae3c8279fb01d6c353d23c4ba1b9cb9ca17f8445388579d00a229cd50906108e3908a908a908690610f85565b60405180910390a25050505050505050565b6108fd610a35565b6001600160a01b038116600090815260016020526040902060030154600160a81b900460ff166109675760405162461bcd60e51b8152602060048201526015602482015274115b9d1a5d1e481b9bdd081c9959da5cdd195c9959605a1b60448201526064016103d2565b6001600160a01b03811660009081526001602052604081209061098a8282610b00565b610998600183016000610b00565b6109a6600283016000610b00565b506003810180546001600160b01b0319169055600060049091018190556040516001600160a01b038316917f66baa8598dad476a7a23c2c39a3c9ea353a313b8050f5f2ff7df3121abe1f98391a250565b6109ff610a35565b6001600160a01b038116610a2957604051631e4fbdf760e01b8152600060048201526024016103d2565b610a3281610a62565b50565b6000546001600160a01b031633146106315760405163118cdaa760e01b81523360048201526024016103d2565b600080546001600160a01b038381166001600160a01b0319831681178455604051919092169283917f8be0079c531659141344cd1fd0a4f28419497f9722a3daafe3b4186f6b6457e09190a35050565b6040518060e0016040528060608152602001606081526020016060815260200160006004811115610ae557610ae5610bd2565b81526000602082018190526040820181905260609091015290565b508054610b0c90610e26565b6000825580601f10610b1c575050565b601f016020900490600052602060002090810190610a3291905b80821115610b4a5760008155600101610b36565b5090565b80356001600160a01b0381168114610b6557600080fd5b919050565b600060208284031215610b7c57600080fd5b610b8582610b4e565b9392505050565b6000815180845260005b81811015610bb257602081850181015186830182015201610b96565b506000602082860101526020601f19601f83011685010191505092915050565b634e487b7160e01b600052602160045260246000fd5b60058110610c0657634e487b7160e01b600052602160045260246000fd5b9052565b60e081526000610c1d60e083018a610b8c565b8281036020840152610c2f818a610b8c565b90508281036040840152610c438189610b8c565b915050610c536060830187610be8565b6001600160a01b0394909416608082015291151560a083015260c090910152949350505050565b602081526000825160e06020840152610c97610100840182610b8c565b90506020840151601f1980858403016040860152610cb58383610b8c565b9250604086015191508085840301606086015250610cd38282610b8c565b9150506060840151610ce86080850182610be8565b5060018060a01b0360808501511660a084015260a0840151151560c084015260c084015160e08401528091505092915050565b60008083601f840112610d2d57600080fd5b50813567ffffffffffffffff811115610d4557600080fd5b602083019150836020828501011115610d5d57600080fd5b9250929050565b60008060008060008060008060a0898b031215610d8057600080fd5b610d8989610b4e565b9750602089013567ffffffffffffffff80821115610da657600080fd5b610db28c838d01610d1b565b909950975060408b0135915080821115610dcb57600080fd5b610dd78c838d01610d1b565b909750955060608b0135915080821115610df057600080fd5b50610dfd8b828c01610d1b565b909450925050608089013560058110610e1557600080fd5b809150509295985092959890939650565b600181811c90821680610e3a57607f821691505b602082108103610e5a57634e487b7160e01b600052602260045260246000fd5b50919050565b634e487b7160e01b600052604160045260246000fd5b601f821115610ec057600081815260208120601f850160051c81016020861015610e9d5750805b601f850160051c820191505b81811015610ebc57828155600101610ea9565b5050505b505050565b815167ffffffffffffffff811115610edf57610edf610e60565b610ef381610eed8454610e26565b84610e76565b602080601f831160018114610f285760008415610f105750858301515b600019600386901b1c1916600185901b178555610ebc565b600085815260208120601f198616915b82811015610f5757888601518255948401946001909101908401610f38565b5085821015610f755787850151600019600388901b60f8161c191681555b5050505050600190811b01905550565b604081528260408201528284606083013760006060848301015260006060601f19601f8601168301019050610fbd6020830184610be8565b94935050505056fea26469706673582212202ca804102d5c8093ad5b051b50b4008f6d633d6a3e440c0374afa7d06cce5a6e64736f6c63430008140033",
  "linkReferences": {},
  "deployedLinkReferences": {}
}