{
  "_format": "hh-sol-artifact-1",
  "contractName": "UserSBT",
  "sourceName": "src/UserSBT.sol",
  "abi": [
    {
      "inputs": [
        {
          "internalType": "address",
          "name": "registryAddr",
          "type": "address"
        },
        {
          "internalType": "string",
          "name": "name_",
          "type": "string"
        },
        {
          "internalType": "string",
          "name": "symbol_",
          "type": "string"
        },
        {
          "internalType": "address",
          "name": "owner_",
          "type": "address"
        }
      ],
      "stateMutability": "nonpayable",
      "type": "constructor"
    },
    {
      "inputs": [
        {
          "internalType": "address",
          "name": "sender",
          "type": "address"
        },
        {
          "internalType": "uint256",
          "name": "tokenId",
          "type": "uint256"
        },
        {
          "internalType": "address",
          "name": "owner",
          "type": "address"
        }
      ],
      "name": "ERC721IncorrectOwner",
      "type": "error"
    },
    {
      "inputs": [
        {
          "internalType": "address",
          "name": "operator",
          "type": "address"
        },
        {
          "internalType": "uint256",
          "name": "tokenId",
          "type": "uint256"
        }
      ],
      "name": "ERC721InsufficientApproval",
      "type": "error"
    },
    {
      "inputs": [
        {
          "internalType": "address",
          "name": "approver",
          "type": "address"
        }
      ],
      "name": "ERC721InvalidApprover",
      "type": "error"
    },
    {
      "inputs": [
        {
          "internalType": "address",
          "name": "operator",
          "type": "address"
        }
      ],
      "name": "ERC721InvalidOperator",
      "type": "error"
    },
    {
      "inputs": [
        {
          "internalType": "address",
          "name": "owner",
          "type": "address"
        }
      ],
      "name": "ERC721InvalidOwner",
      "type": "error"
    },
    {
      "inputs": [
        {
          "internalType": "address",
          "name": "receiver",
          "type": "address"
        }
      ],
      "name": "ERC721InvalidReceiver",
      "type": "error"
    },
    {
      "inputs": [
        {
          "internalType": "address",
          "name": "sender",
          "type": "address"
        }
      ],
      "name": "ERC721InvalidSender",
      "type": "error"
    },
    {
      "inputs": [
        {
          "internalType": "uint256",
          "name": "tokenId",
          "type": "uint256"
        }
      ],
      "name": "ERC721NonexistentToken",
      "type": "error"
    },
    {
      "inputs": [],
      "name": "EnforcedPause",
      "type": "error"
    },
    {
      "inputs": [],
      "name": "ExpectedPause",
      "type": "error"
    },
    {
      "inputs": [
        {
          "internalType": "address",
          "name": "owner",
          "type": "address"
        }
      ],
      "name": "OwnableInvalidOwner",
      "type": "error"
    },
    {
      "inputs": [
        {
          "internalType": "address",
          "name": "account",
          "type": "address"
        }
      ],
      "name": "OwnableUnauthorizedAccount",
      "type": "error"
    },
    {
      "anonymous": false,
      "inputs": [
        {
          "indexed": true,
          "internalType": "address",
          "name": "owner",
          "type": "address"
        },
        {
          "indexed": true,
          "internalType": "address",
          "name": "approved",
          "type": "address"
        },
        {
          "indexed": true,
          "internalType": "uint256",
          "name": "tokenId",
          "type": "uint256"
        }
      ],
      "name": "Approval",
      "type": "event"
    },
    {
      "anonymous": false,
      "inputs": [
        {
          "indexed": true,
          "internalType": "address",
          "name": "owner",
          "type": "address"
        },
        {
          "indexed": true,
          "internalType": "address",
          "name": "operator",
          "type": "address"
        },
        {
          "indexed": false,
          "internalType": "bool",
          "name": "approved",
          "type": "bool"
        }
      ],
      "name": "ApprovalForAll",
      "type": "event"
    },
    {
      "anonymous": false,
      "inputs": [
        {
          "indexed": true,
          "internalType": "uint256",
          "name": "tokenId",
          "type": "uint256"
        }
      ],
      "name": "Expired",
      "type": "event"
    },
    {
      "anonymous": false,
      "inputs": [
        {
          "indexed": true,
          "internalType": "address",
          "name": "to",
          "type": "address"
        },
        {
          "indexed": true,
          "internalType": "uint256",
          "name": "tokenId",
          "type": "uint256"
        },
        {
          "indexed": false,
          "internalType": "uint256",
          "name": "expiry",
          "type": "uint256"
        }
      ],
      "name": "Minted",
      "type": "event"
    },
    {
      "anonymous": false,
      "inputs": [
        {
          "indexed": true,
          "internalType": "address",
          "name": "previousOwner",
          "type": "address"
        },
        {
          "indexed": true,
          "internalType": "address",
          "name": "newOwner",
          "type": "address"
        }
      ],
      "name": "OwnershipTransferred",
      "type": "event"
    },
    {
      "anonymous": false,
      "inputs": [
        {
          "indexed": false,
          "internalType": "address",
          "name": "account",
          "type": "address"
        }
      ],
      "name": "Paused",
      "type": "event"
    },
    {
      "anonymous": false,
      "inputs": [
        {
          "indexed": true,
          "internalType": "uint256",
          "name": "tokenId",
          "type": "uint256"
        },
        {
          "indexed": false,
          "internalType": "uint256",
          "name": "newExpiry",
          "type": "uint256"
        }
      ],
      "name": "Renewed",
      "type": "event"
    },
    {
      "anonymous": false,
      "inputs": [
        {
          "indexed": true,
          "internalType": "uint256",
          "name": "tokenId",
          "type": "uint256"
        }
      ],
      "name": "Revoked",
      "type": "event"
    },
    {
      "anonymous": false,
      "inputs": [
        {
          "indexed": true,
          "internalType": "address",
          "name": "from",
          "type": "address"
        },
        {
          "indexed": true,
          "internalType": "address",
          "name": "to",
          "type": "address"
        },
        {
          "indexed": true,
          "internalType": "uint256",
          "name": "tokenId",
          "type": "uint256"
        }
      ],
      "name": "Transfer",
      "type": "event"
    },
    {
      "anonymous": false,
      "inputs": [
        {
          "indexed": false,
          "internalType": "address",
          "name": "account",
          "type": "address"
        }
      ],
      "name": "Unpaused",
      "type": "event"
    },
    {
      "inputs": [
        {
          "internalType": "address",
          "name": "to",
          "type": "address"
        },
        {
          "internalType": "uint256",
          "name": "tokenId",
          "type": "uint256"
        }
      ],
      "name": "approve",
      "outputs": [],
      "stateMutability": "nonpayable",
      "type": "function"
    },
    {
      "inputs": [
        {
          "internalType": "uint256",
          "name": "tokenId",
          "type": "uint256"
        }
      ],
      "name": "autoRevokeExpired",
      "outputs": [],
      "stateMutability": "nonpayable",
      "type": "function"
    },
    {
      "inputs": [
        {
          "internalType": "address",
          "name": "owner",
          "type": "address"
        }
      ],
      "name": "balanceOf",
      "outputs": [
        {
          "internalType": "uint256",
          "name": "",
          "type": "uint256"
        }
      ],
      "stateMutability": "view",
      "type": "function"
    },
    {
      "inputs": [
        {
          "internalType": "uint256",
          "name": "tokenId",
          "type": "uint256"
        }
      ],
      "name": "getApproved",
      "outputs": [
        {
          "internalType": "address",
          "name": "",
          "type": "address"
        }
      ],
      "stateMutability": "view",
      "type": "function"
    },
    {
      "inputs": [
        {
          "internalType": "address",
          "name": "owner",
          "type": "address"
        },
        {
          "internalType": "address",
          "name": "operator",
          "type": "address"
        }
      ],
      "name": "isApprovedForAll",
      "outputs": [
        {
          "internalType": "bool",
          "name": "",
          "type": "bool"
        }
      ],
      "stateMutability": "view",
      "type": "function"
    },
    {
      "inputs": [
        {
          "internalType": "uint256",
          "name": "tokenId",
          "type": "uint256"
        }
      ],
      "name": "isExpired",
      "outputs": [
        {
          "internalType": "bool",
          "name": "",
          "type": "bool"
        }
      ],
      "stateMutability": "view",
      "type": "function"
    },
    {
      "inputs": [
        {
          "internalType": "address",
          "name": "to",
          "type": "address"
        },
        {
          "internalType": "string",
          "name": "uri",
          "type": "string"
        },
        {
          "internalType": "uint256",
          "name": "expiryTimestamp",
          "type": "uint256"
        }
      ],
      "name": "mint",
      "outputs": [],
      "stateMutability": "nonpayable",
      "type": "function"
    },
    {
      "inputs": [
        {
          "internalType": "address[]",
          "name": "recipients",
          "type": "address[]"
        },
        {
          "internalType": "string",
          "name": "uri",
          "type": "string"
        },
        {
          "internalType": "uint256",
          "name": "expiryTimestamp",
          "type": "uint256"
        }
      ],
      "name": "mintBatch",
      "outputs": [],
      "stateMutability": "nonpayable",
      "type": "function"
    },
    {
      "inputs": [],
      "name": "name",
      "outputs": [
        {
          "internalType": "string",
          "name": "",
          "type": "string"
        }
      ],
      "stateMutability": "view",
      "type": "function"
    },
    {
      "inputs": [],
      "name": "owner",
      "outputs": [
        {
          "internalType": "address",
          "name": "",
          "type": "address"
        }
      ],
      "stateMutability": "view",
      "type": "function"
    },
    {
      "inputs": [
        {
          "internalType": "uint256",
          "name": "tokenId",
          "type": "uint256"
        }
      ],
      "name": "ownerOf",
      "outputs": [
        {
          "internalType": "address",
          "name": "",
          "type": "address"
        }
      ],
      "stateMutability": "view",
      "type": "function"
    },
    {
      "inputs": [],
      "name": "pause",
      "outputs": [],
      "stateMutability": "nonpayable",
      "type": "function"
    },
    {
      "inputs": [],
      "name": "paused",
      "outputs": [
        {
          "internalType": "bool",
          "name": "",
          "type": "bool"
        }
      ],
      "stateMutability": "view",
      "type": "function"
    },
    {
      "inputs": [],
      "name": "registry",
      "outputs": [
        {
          "internalType": "contract IISBTRegistry",
          "name": "",
          "type": "address"
        }
      ],
      "stateMutability": "view",
      "type": "function"
    },
    {
      "inputs": [
        {
          "internalType": "uint256",
          "name": "tokenId",
          "type": "uint256"
        },
        {
          "internalType": "uint256",
          "name": "newExpiry",
          "type": "uint256"
        }
      ],
      "name": "renewExpiry",
      "outputs": [],
      "stateMutability": "nonpayable",
      "type": "function"
    },
    {
      "inputs": [],
      "name": "renounceOwnership",
      "outputs": [],
      "stateMutability": "nonpayable",
      "type": "function"
    },
    {
      "inputs": [
        {
          "internalType": "uint256",
          "name": "tokenId",
          "type": "uint256"
        }
      ],
      "name": "revoke",
      "outputs": [],
      "stateMutability": "nonpayable",
      "type": "function"
    },
    {
      "inputs": [
        {
          "internalType": "address",
          "name": "from",
          "type": "address"
        },
        {
          "internalType": "address",
          "name": "to",
          "type": "address"
        },
        {
          "internalType": "uint256",
          "name": "tokenId",
          "type": "uint256"
        }
      ],
      "name": "safeTransferFrom",
      "outputs": [],
      "stateMutability": "nonpayable",
      "type": "function"
    },
    {
      "inputs": [
        {
          "internalType": "address",
          "name": "from",
          "type": "address"
        },
        {
          "internalType": "address",
          "name": "to",
          "type": "address"
        },
        {
          "internalType": "uint256",
          "name": "tokenId",
          "type": "uint256"
        },
        {
          "internalType": "bytes",
          "name": "data",
          "type": "bytes"
        }
      ],
      "name": "safeTransferFrom",
      "outputs": [],
      "stateMutability": "nonpayable",
      "type": "function"
    },
    {
      "inputs": [
        {
          "internalType": "uint256",
          "name": "",
          "type": "uint256"
        }
      ],
      "name": "sbtMetadata",
      "outputs": [
        {
          "internalType": "address",
          "name": "issuer",
          "type": "address"
        },
        {
          "internalType": "uint256",
          "name": "expiry",
          "type": "uint256"
        }
      ],
      "stateMutability": "view",
      "type": "function"
    },
    {
      "inputs": [
        {
          "internalType": "address",
          "name": "operator",
          "type": "address"
        },
        {
          "internalType": "bool",
          "name": "approved",
          "type": "bool"
        }
      ],
      "name": "setApprovalForAll",
      "outputs": [],
      "stateMutability": "nonpayable",
      "type": "function"
    },
    {
      "inputs": [
        {
          "internalType": "bytes4",
          "name": "interfaceId",
          "type": "bytes4"
        }
      ],
      "name": "supportsInterface",
      "outputs": [
        {
          "internalType": "bool",
          "name": "",
          "type": "bool"
        }
      ],
      "stateMutability": "view",
      "type": "function"
    },
    {
      "inputs": [],
      "name": "symbol",
      "outputs": [
        {
          "internalType": "string",
          "name": "",
          "type": "string"
        }
      ],
      "stateMutability": "view",
      "type": "function"
    },
    {
      "inputs": [],
      "name": "tokenIdCounter",
      "outputs": [
        {
          "internalType": "uint256",
          "name": "",
          "type": "uint256"
        }
      ],
      "stateMutability": "view",
      "type": "function"
    },
    {
      "inputs": [
        {
          "internalType": "uint256",
          "name": "tokenId",
          "type": "uint256"
        }
      ],
      "name": "tokenURI",
      "outputs": [
        {
          "internalType": "string",
          "name": "",
          "type": "string"
        }
      ],
      "stateMutability": "view",
      "type": "function"
    },
    {
      "inputs": [
        {
          "internalType": "address",
          "name": "from",
          "type": "address"
        },
        {
          "internalType": "address",
          "name": "to",
          "type": "address"
        },
        {
          "internalType": "uint256",
          "name": "tokenId",
          "type": "uint256"
        }
      ],
      "name": "transferFrom",
      "outputs": [],
      "stateMutability": "nonpayable",
      "type": "function"
    },
    {
      "inputs": [
        {
          "internalType": "address",
          "name": "newOwner",
          "type": "address"
        }
      ],
      "name": "transferOwnership",
      "outputs": [],
      "stateMutability": "nonpayable",
      "type": "function"
    },
    {
      "inputs": [],
      "name": "unpause",
      "outputs": [],
      "stateMutability": "nonpayable",
      "type": "function"
    }
  ],
  "bytecode": "0x60a06040523480156200001157600080fd5b506040516200243a3803806200243a8339810160408190526200003491620001db565b8083836000620000458382620002fa565b506001620000548282620002fa565b5050506001600160a01b0381166200008657604051631e4fbdf760e01b81526000600482015260240160405180910390fd5b6200009181620000a7565b505050506001600160a01b0316608052620003c6565b600680546001600160a01b038381166001600160a01b0319831681179093556040519116919082907f8be0079c531659141344cd1fd0a4f28419497f9722a3daafe3b4186f6b6457e090600090a35050565b80516001600160a01b03811681146200011157600080fd5b919050565b634e487b7160e01b600052604160045260246000fd5b600082601f8301126200013e57600080fd5b81516001600160401b03808211156200015b576200015b62000116565b604051601f8301601f19908116603f0116810190828211818310171562000186576200018662000116565b81604052838152602092508683858801011115620001a357600080fd5b600091505b83821015620001c75785820183015181830184015290820190620001a8565b600093810190920192909252949350505050565b60008060008060808587031215620001f257600080fd5b620001fd85620000f9565b60208601519094506001600160401b03808211156200021b57600080fd5b62000229888389016200012c565b945060408701519150808211156200024057600080fd5b506200024f878288016200012c565b9250506200026060608601620000f9565b905092959194509250565b600181811c908216806200028057607f821691505b602082108103620002a157634e487b7160e01b600052602260045260246000fd5b50919050565b601f821115620002f557600081815260208120601f850160051c81016020861015620002d05750805b601f850160051c820191505b81811015620002f157828155600101620002dc565b5050505b505050565b81516001600160401b0381111562000316576200031662000116565b6200032e816200032784546200026b565b84620002a7565b602080601f8311600181146200036657600084156200034d5750858301515b600019600386901b1c1916600185901b178555620002f1565b600085815260208120601f198616915b82811015620003975788860151825594840194600190910190840162000376565b5085821015620003b65787850151600019600388901b60f8161c191681555b5050505050600190811b01905550565b60805161204a620003f060003960008181610365015281816105670152610b65015261204a6000f3fe608060405234801561001057600080fd5b50600436106101c45760003560e01c8063715018a6116100f9578063a22cb46511610097578063c87b56dd11610071578063c87b56dd146103ea578063d9548e53146103fd578063e985e9c514610410578063f2fde38b1461042357600080fd5b8063a22cb465146103b1578063b88d4fde146103c4578063ba7aef43146103d757600080fd5b80638456cb59116100d35780638456cb59146103875780638da5cb5b1461038f57806395d89b41146103a057806398bdf6f5146103a857600080fd5b8063715018a61461034557806378eda26e1461034d5780637b1039991461036057600080fd5b80633f4ba83a116101665780635729c046116101405780635729c046146102ec5780635c975abb146102ff5780636352211e1461031157806370a082311461032457600080fd5b80633f4ba83a146102be57806342842e0e146102c657806343e01817146102d957600080fd5b8063095ea7b3116101a2578063095ea7b31461023157806320c5429b1461024657806323b872dd1461025957806328fbeea51461026c57600080fd5b806301ffc9a7146101c957806306fdde03146101f1578063081812fc14610206575b600080fd5b6101dc6101d736600461190e565b610436565b60405190151581526020015b60405180910390f35b6101f9610488565b6040516101e89190611971565b610219610214366004611984565b61051a565b6040516001600160a01b0390911681526020016101e8565b61024461023f3660046119b9565b610543565b005b610244610254366004611984565b610552565b6102446102673660046119e3565b61071a565b61029f61027a366004611984565b600960205260009081526040902080546001909101546001600160a01b039091169082565b604080516001600160a01b0390931683526020830191909152016101e8565b6102446107a5565b6102446102d43660046119e3565b6107b7565b6102446102e7366004611a68565b6107d7565b6102446102fa366004611984565b6109b6565b600654600160a01b900460ff166101dc565b61021961031f366004611984565b610aeb565b610337610332366004611b0a565b610af6565b6040519081526020016101e8565b610244610b3e565b61024461035b366004611b25565b610b50565b6102197f000000000000000000000000000000000000000000000000000000000000000081565b610244610d5f565b6006546001600160a01b0316610219565b6101f9610d6f565b61033760075481565b6102446103bf366004611b55565b610d7e565b6102446103d2366004611c18565b610d89565b6102446103e5366004611c94565b610da1565b6101f96103f8366004611984565b610f33565b6101dc61040b366004611984565b611096565b6101dc61041e366004611cff565b6110df565b610244610431366004611b0a565b61110d565b60006001600160e01b031982166380ac58cd60e01b148061046757506001600160e01b03198216635b5e139f60e01b145b8061048257506301ffc9a760e01b6001600160e01b03198316145b92915050565b60606000805461049790611d32565b80601f01602080910402602001604051908101604052809291908181526020018280546104c390611d32565b80156105105780601f106104e557610100808354040283529160200191610510565b820191906000526020600020905b8154815290600101906020018083116104f357829003601f168201915b5050505050905090565b60006105258261114b565b506000828152600460205260409020546001600160a01b0316610482565b61054e828233611183565b5050565b6040516322af8f9b60e11b81523360048201527f00000000000000000000000000000000000000000000000000000000000000006001600160a01b03169063455f1f3690602401602060405180830381865afa1580156105b6573d6000803e3d6000fd5b505050506040513d601f19601f820116820180604052508101906105da9190611d6c565b61062b5760405162461bcd60e51b815260206004820152601f60248201527f43616c6c6572206973206e6f74206120766572696669656420656e746974790060448201526064015b60405180910390fd5b610633611190565b600061063e826111bb565b6001600160a01b0316036106645760405162461bcd60e51b815260040161062290611d89565b6000818152600960205260409020546001600160a01b031633146106c55760405162461bcd60e51b815260206004820152601860248201527721b0b63632b91034b9903737ba103a34329034b9b9bab2b960411b6044820152606401610622565b6106ce816111d6565b60008181526009602052604080822080546001600160a01b03191681556001018290555182917f61e27b0bfd8e18e6b92ec32ce1c28bb698d27bfe93e84c7e94d4db0a3135c76091a250565b6001600160a01b03821661074457604051633250574960e11b815260006004820152602401610622565b6000610751838333611211565b9050836001600160a01b0316816001600160a01b03161461079f576040516364283d7b60e01b81526001600160a01b0380861660048301526024820184905282166044820152606401610622565b50505050565b6107ad611294565b6107b56112c1565b565b6107d283838360405180602001604052806000815250610d89565b505050565b6107df611294565b6107e7611190565b8361082d5760405162461bcd60e51b8152602060048201526016602482015275456d70747920726563697069656e747320617272617960501b6044820152606401610622565b80158061083957504281115b6108765760405162461bcd60e51b815260206004820152600e60248201526d496e76616c69642065787069727960901b6044820152606401610622565b6008805461088390611d32565b905060000361089b576008610899838583611dfd565b505b60005b848110156109ae5760008686838181106108ba576108ba611ebd565b90506020020160208101906108cf9190611b0a565b90506001600160a01b0381161561099b5760006007600081546108f190611ed3565b918290555090506109028282611316565b604051806040016040528061091f6006546001600160a01b031690565b6001600160a01b0390811682526020918201879052600084815260098352604090819020845181546001600160a01b03191690841617815593830151600190940193909355915186815283928516917f25b428dfde728ccfaddad7e29e4ac23c24ed7fd1a6e3e3f91894a9a073f5dfff910160405180910390a3505b50806109a681611ed3565b91505061089e565b505050505050565b6109be611190565b60006109c9826111bb565b6001600160a01b0316036109ef5760405162461bcd60e51b815260040161062290611d89565b60008181526009602052604081206001015490819003610a465760405162461bcd60e51b8152602060048201526012602482015271151bdad95b881a5cc81c195c9b585b995b9d60721b6044820152606401610622565b428110610a955760405162461bcd60e51b815260206004820152601960248201527f546f6b656e20686173206e6f74206578706972656420796574000000000000006044820152606401610622565b610a9e826111d6565b60008281526009602052604080822080546001600160a01b03191681556001018290555183917ff80dbaea4785589e52984ca36a31de106adc77759539a5c7d92883bf49692fe991a25050565b60006104828261114b565b60006001600160a01b038216610b22576040516322718ad960e21b815260006004820152602401610622565b506001600160a01b031660009081526003602052604090205490565b610b46611294565b6107b56000611330565b6040516322af8f9b60e11b81523360048201527f00000000000000000000000000000000000000000000000000000000000000006001600160a01b03169063455f1f3690602401602060405180830381865afa158015610bb4573d6000803e3d6000fd5b505050506040513d601f19601f82011682018060405250810190610bd89190611d6c565b610c245760405162461bcd60e51b815260206004820152601f60248201527f43616c6c6572206973206e6f74206120766572696669656420656e74697479006044820152606401610622565b610c2c611190565b6000610c37836111bb565b6001600160a01b031603610c5d5760405162461bcd60e51b815260040161062290611d89565b6000828152600960205260409020546001600160a01b03163314610cbe5760405162461bcd60e51b815260206004820152601860248201527721b0b63632b91034b9903737ba103a34329034b9b9bab2b960411b6044820152606401610622565b801580610cca57504281115b610d0b5760405162461bcd60e51b8152602060048201526012602482015271496e76616c6964206e65772065787069727960701b6044820152606401610622565b600082815260096020526040908190206001018290555182907fa3b231fbb516462c26b9b2de2c4ab9072ef38e6f324e8a0d3a5f28f420758d4c90610d539084815260200190565b60405180910390a25050565b610d67611294565b6107b5611382565b60606001805461049790611d32565b61054e3383836113c5565b610d9484848461071a565b61079f3385858585611464565b610da9611294565b610db1611190565b6001600160a01b038316610e075760405162461bcd60e51b815260206004820152601b60248201527f43616e6e6f74206d696e7420746f207a65726f206164647265737300000000006044820152606401610622565b801580610e1357504281115b610e505760405162461bcd60e51b815260206004820152600e60248201526d496e76616c69642065787069727960901b6044820152606401610622565b60088054610e5d90611d32565b9050600003610e74576008610e728382611efa565b505b6000600760008154610e8590611ed3565b91829055509050610e968482611316565b6040518060400160405280610eb36006546001600160a01b031690565b6001600160a01b0390811682526020918201859052600084815260098352604090819020845181546001600160a01b03191690841617815593830151600190940193909355915184815283928716917f25b428dfde728ccfaddad7e29e4ac23c24ed7fd1a6e3e3f91894a9a073f5dfff910160405180910390a350505050565b60606000610f40836111bb565b6001600160a01b031603610fa65760405162461bcd60e51b815260206004820152602760248201527f4552433732313a2055524920717565727920666f72206e6f6e6578697374656e6044820152663a103a37b5b2b760c91b6064820152608401610622565b600060088054610fb590611d32565b9050116110045760405162461bcd60e51b815260206004820152601a60248201527f557365725342543a20546f6b656e20555249206e6f74207365740000000000006044820152606401610622565b6008805461101190611d32565b80601f016020809104026020016040519081016040528092919081815260200182805461103d90611d32565b801561108a5780601f1061105f5761010080835404028352916020019161108a565b820191906000526020600020905b81548152906001019060200180831161106d57829003601f168201915b50505050509050919050565b6000806110a2836111bb565b6001600160a01b0316036110b857506000919050565b60008281526009602052604090206001015480158015906110d857504281105b9392505050565b6001600160a01b03918216600090815260056020908152604080832093909416825291909152205460ff1690565b611115611294565b6001600160a01b03811661113f57604051631e4fbdf760e01b815260006004820152602401610622565b61114881611330565b50565b600080611157836111bb565b90506001600160a01b03811661048257604051637e27328960e01b815260048101849052602401610622565b6107d2838383600161158d565b600654600160a01b900460ff16156107b55760405163d93c066560e01b815260040160405180910390fd5b6000908152600260205260409020546001600160a01b031690565b60006111e56000836000611211565b90506001600160a01b03811661054e57604051637e27328960e01b815260048101839052602401610622565b60008061121d846111bb565b90506001600160a01b038116158061123c57506001600160a01b038516155b6112805760405162461bcd60e51b81526020600482015260156024820152745342543a206e6f6e2d7472616e7366657261626c6560581b6044820152606401610622565b61128b858585611693565b95945050505050565b6006546001600160a01b031633146107b55760405163118cdaa760e01b8152336004820152602401610622565b6112c9611787565b6006805460ff60a01b191690557f5db9ee0a495bf2e6ff9c91a7834c1ba4fdd244a5e8aa4e537bd38aeae4b073aa335b6040516001600160a01b03909116815260200160405180910390a1565b61054e8282604051806020016040528060008152506117b1565b600680546001600160a01b038381166001600160a01b0319831681179093556040519116919082907f8be0079c531659141344cd1fd0a4f28419497f9722a3daafe3b4186f6b6457e090600090a35050565b61138a611190565b6006805460ff60a01b1916600160a01b1790557f62e78cea01bee320cd4e420270b5ea74000d11b0c9f74754ebdbfc544b05a2586112f93390565b6001600160a01b0382166113f757604051630b61174360e31b81526001600160a01b0383166004820152602401610622565b6001600160a01b03838116600081815260056020908152604080832094871680845294825291829020805460ff191686151590811790915591519182527f17307eab39ab6107e8899845ad3d59bd9653f200f220920489ca2b5937696c31910160405180910390a3505050565b6001600160a01b0383163b1561158657604051630a85bd0160e11b81526001600160a01b0384169063150b7a02906114a6908890889087908790600401611fba565b6020604051808303816000875af19250505080156114e1575060408051601f3d908101601f191682019092526114de91810190611ff7565b60015b61154a573d80801561150f576040519150601f19603f3d011682016040523d82523d6000602084013e611514565b606091505b50805160000361154257604051633250574960e11b81526001600160a01b0385166004820152602401610622565b805160208201fd5b6001600160e01b03198116630a85bd0160e11b146109ae57604051633250574960e11b81526001600160a01b0385166004820152602401610622565b5050505050565b80806115a157506001600160a01b03821615155b156116635760006115b18461114b565b90506001600160a01b038316158015906115dd5750826001600160a01b0316816001600160a01b031614155b80156115f057506115ee81846110df565b155b156116195760405163a9fbf51f60e01b81526001600160a01b0384166004820152602401610622565b81156116615783856001600160a01b0316826001600160a01b03167f8c5be1e5ebec7d5bd14f71427d1e84f3dd0314c0f7b2291e5b200ac8c7c3b92560405160405180910390a45b505b5050600090815260046020526040902080546001600160a01b0319166001600160a01b0392909216919091179055565b60008061169f846111bb565b90506001600160a01b038316156116bb576116bb8184866117c9565b6001600160a01b038116156116f9576116d860008560008061158d565b6001600160a01b038116600090815260036020526040902080546000190190555b6001600160a01b03851615611728576001600160a01b0385166000908152600360205260409020805460010190555b60008481526002602052604080822080546001600160a01b0319166001600160a01b0389811691821790925591518793918516917fddf252ad1be2c89b69c2b068fc378daa952ba7f163c4a11628f55a4df523b3ef91a4949350505050565b600654600160a01b900460ff166107b557604051638dfc202b60e01b815260040160405180910390fd5b6117bb838361182d565b6107d2336000858585611464565b6117d4838383611892565b6107d2576001600160a01b03831661180257604051637e27328960e01b815260048101829052602401610622565b60405163177e802f60e01b81526001600160a01b038316600482015260248101829052604401610622565b6001600160a01b03821661185757604051633250574960e11b815260006004820152602401610622565b600061186583836000611211565b90506001600160a01b038116156107d2576040516339e3563760e11b815260006004820152602401610622565b60006001600160a01b038316158015906118f05750826001600160a01b0316846001600160a01b031614806118cc57506118cc84846110df565b806118f057506000828152600460205260409020546001600160a01b038481169116145b949350505050565b6001600160e01b03198116811461114857600080fd5b60006020828403121561192057600080fd5b81356110d8816118f8565b6000815180845260005b8181101561195157602081850181015186830182015201611935565b506000602082860101526020601f19601f83011685010191505092915050565b6020815260006110d8602083018461192b565b60006020828403121561199657600080fd5b5035919050565b80356001600160a01b03811681146119b457600080fd5b919050565b600080604083850312156119cc57600080fd5b6119d58361199d565b946020939093013593505050565b6000806000606084860312156119f857600080fd5b611a018461199d565b9250611a0f6020850161199d565b9150604084013590509250925092565b60008083601f840112611a3157600080fd5b50813567ffffffffffffffff811115611a4957600080fd5b602083019150836020828501011115611a6157600080fd5b9250929050565b600080600080600060608688031215611a8057600080fd5b853567ffffffffffffffff80821115611a9857600080fd5b818801915088601f830112611aac57600080fd5b813581811115611abb57600080fd5b8960208260051b8501011115611ad057600080fd5b602092830197509550908701359080821115611aeb57600080fd5b50611af888828901611a1f565b96999598509660400135949350505050565b600060208284031215611b1c57600080fd5b6110d88261199d565b60008060408385031215611b3857600080fd5b50508035926020909101359150565b801515811461114857600080fd5b60008060408385031215611b6857600080fd5b611b718361199d565b91506020830135611b8181611b47565b809150509250929050565b634e487b7160e01b600052604160045260246000fd5b600067ffffffffffffffff80841115611bbd57611bbd611b8c565b604051601f8501601f19908116603f01168101908282118183101715611be557611be5611b8c565b81604052809350858152868686011115611bfe57600080fd5b858560208301376000602087830101525050509392505050565b60008060008060808587031215611c2e57600080fd5b611c378561199d565b9350611c456020860161199d565b925060408501359150606085013567ffffffffffffffff811115611c6857600080fd5b8501601f81018713611c7957600080fd5b611c8887823560208401611ba2565b91505092959194509250565b600080600060608486031215611ca957600080fd5b611cb28461199d565b9250602084013567ffffffffffffffff811115611cce57600080fd5b8401601f81018613611cdf57600080fd5b611cee86823560208401611ba2565b925050604084013590509250925092565b60008060408385031215611d1257600080fd5b611d1b8361199d565b9150611d296020840161199d565b90509250929050565b600181811c90821680611d4657607f821691505b602082108103611d6657634e487b7160e01b600052602260045260246000fd5b50919050565b600060208284031215611d7e57600080fd5b81516110d881611b47565b602080825260149082015273151bdad95b88191bd95cc81b9bdd08195e1a5cdd60621b604082015260600190565b601f8211156107d257600081815260208120601f850160051c81016020861015611dde5750805b601f850160051c820191505b818110156109ae57828155600101611dea565b67ffffffffffffffff831115611e1557611e15611b8c565b611e2983611e238354611d32565b83611db7565b6000601f841160018114611e5d5760008515611e455750838201355b600019600387901b1c1916600186901b178355611586565b600083815260209020601f19861690835b82811015611e8e5786850135825560209485019460019092019101611e6e565b5086821015611eab5760001960f88860031b161c19848701351681555b505060018560011b0183555050505050565b634e487b7160e01b600052603260045260246000fd5b600060018201611ef357634e487b7160e01b600052601160045260246000fd5b5060010190565b815167ffffffffffffffff811115611f1457611f14611b8c565b611f2881611f228454611d32565b84611db7565b602080601f831160018114611f5d5760008415611f455750858301515b600019600386901b1c1916600185901b1785556109ae565b600085815260208120601f198616915b82811015611f8c57888601518255948401946001909101908401611f6d565b5085821015611faa5787850151600019600388901b60f8161c191681555b5050505050600190811b01905550565b6001600160a01b0385811682528416602082015260408101839052608060608201819052600090611fed9083018461192b565b9695505050505050565b60006020828403121561200957600080fd5b81516110d8816118f856fea2646970667358221220656dca7ebea6f0bba1321d0f0a5cdbf7e403bb567a34d96caf1be944de73164864736f6c63430008140033",
  "linkReferences": {},
  "deployedLinkReferences": {}
}